{
  "contractName": "Ballot",
  "abi": [
    {
      "constant": false,
      "inputs": [
        {
          "name": "proposal",
          "type": "uint256"
        }
      ],
      "name": "vote",
      "outputs": [],
      "payable": true,
      "stateMutability": "payable",
      "type": "function"
    },
    {
      "constant": true,
      "inputs": [
        {
          "name": "",
          "type": "uint256"
        }
      ],
      "name": "proposals",
      "outputs": [
        {
          "name": "name",
          "type": "bytes32"
        },
        {
          "name": "voteCount",
          "type": "uint256"
        }
      ],
      "payable": false,
      "stateMutability": "view",
      "type": "function"
    },
    {
      "constant": true,
      "inputs": [],
      "name": "createCan",
      "outputs": [
        {
          "name": "",
          "type": "bool"
        }
      ],
      "payable": false,
      "stateMutability": "view",
      "type": "function"
    },
    {
      "constant": true,
      "inputs": [],
      "name": "getProposalsCounts",
      "outputs": [
        {
          "name": "",
          "type": "uint256"
        }
      ],
      "payable": false,
      "stateMutability": "view",
      "type": "function"
    },
    {
      "constant": true,
      "inputs": [],
      "name": "chairperson",
      "outputs": [
        {
          "name": "",
          "type": "address"
        }
      ],
      "payable": false,
      "stateMutability": "view",
      "type": "function"
    },
    {
      "constant": false,
      "inputs": [],
      "name": "getEndTimeStamp",
      "outputs": [
        {
          "name": "endTimeStamp_",
          "type": "uint256"
        }
      ],
      "payable": false,
      "stateMutability": "nonpayable",
      "type": "function"
    },
    {
      "constant": true,
      "inputs": [],
      "name": "timeToExpiry",
      "outputs": [
        {
          "name": "",
          "type": "uint256"
        }
      ],
      "payable": false,
      "stateMutability": "view",
      "type": "function"
    },
    {
      "constant": true,
      "inputs": [],
      "name": "getProposalsName",
      "outputs": [
        {
          "name": "nameCandi_",
          "type": "bytes32[]"
        }
      ],
      "payable": false,
      "stateMutability": "view",
      "type": "function"
    },
    {
      "constant": true,
      "inputs": [],
      "name": "endTimeStamp",
      "outputs": [
        {
          "name": "",
          "type": "uint256"
        }
      ],
      "payable": false,
      "stateMutability": "view",
      "type": "function"
    },
    {
      "constant": true,
      "inputs": [],
      "name": "winningProposal",
      "outputs": [
        {
          "name": "winningProposal_",
          "type": "uint256"
        }
      ],
      "payable": false,
      "stateMutability": "view",
      "type": "function"
    },
    {
      "constant": true,
      "inputs": [
        {
          "name": "title_",
          "type": "string"
        },
        {
          "name": "proposalNames",
          "type": "bytes32[]"
        },
        {
          "name": "_startTime",
          "type": "uint256"
        },
        {
          "name": "_timeToExpiry",
          "type": "uint256"
        }
      ],
      "name": "startTime",
      "outputs": [
        {
          "name": "",
          "type": "uint256"
        }
      ],
      "payable": false,
      "stateMutability": "view",
      "type": "function"
    },
    {
      "constant": false,
      "inputs": [],
      "name": "scoreProposal",
      "outputs": [
        {
          "name": "scoreProposal_",
          "type": "uint256[]"
        }
      ],
      "payable": true,
      "stateMutability": "payable",
      "type": "function"
    },
    {
      "constant": false,
      "inputs": [
        {
          "name": "startTime_",
          "type": "uint256"
        }
      ],
      "name": "setStartTimeStamp",
      "outputs": [
        {
          "name": "",
          "type": "uint256"
        }
      ],
      "payable": false,
      "stateMutability": "nonpayable",
      "type": "function"
    },
    {
      "constant": false,
      "inputs": [
        {
          "name": "title_",
          "type": "string"
        },
        {
          "name": "proposalNames",
          "type": "bytes32[]"
        },
        {
          "name": "_startTime",
          "type": "uint256"
        },
        {
          "name": "_timeToExpiry",
          "type": "uint256"
        }
      ],
      "name": "Ballot_box",
      "outputs": [
        {
          "name": "weight",
          "type": "uint256"
        },
        {
          "name": "voted",
          "type": "bool"
        },
        {
          "name": "delegate",
          "type": "address"
        },
        {
          "name": "vote",
          "type": "uint256"
        }
      ],
      "payable": true,
      "stateMutability": "payable",
      "type": "function"
    },
    {
      "constant": true,
      "inputs": [],
      "name": "getVoteCountNow",
      "outputs": [
        {
          "name": "",
          "type": "uint256"
        }
      ],
      "payable": false,
      "stateMutability": "view",
      "type": "function"
    },
    {
      "constant": false,
      "inputs": [
        {
          "name": "voter",
          "type": "address"
        }
      ],
      "name": "giveRightToVote",
      "outputs": [
        {
          "name": "",
          "type": "uint256"
        }
      ],
      "payable": true,
      "stateMutability": "payable",
      "type": "function"
    },
    {
      "constant": true,
      "inputs": [
        {
          "name": "",
          "type": "address"
        }
      ],
      "name": "voters",
      "outputs": [
        {
          "name": "weight",
          "type": "uint256"
        },
        {
          "name": "voted",
          "type": "bool"
        },
        {
          "name": "delegate",
          "type": "address"
        },
        {
          "name": "vote",
          "type": "uint256"
        }
      ],
      "payable": false,
      "stateMutability": "view",
      "type": "function"
    },
    {
      "constant": true,
      "inputs": [],
      "name": "voteCountNow",
      "outputs": [
        {
          "name": "",
          "type": "uint256"
        }
      ],
      "payable": false,
      "stateMutability": "view",
      "type": "function"
    },
    {
      "constant": false,
      "inputs": [],
      "name": "getNow",
      "outputs": [
        {
          "name": "",
          "type": "uint256"
        }
      ],
      "payable": true,
      "stateMutability": "payable",
      "type": "function"
    },
    {
      "constant": false,
      "inputs": [
        {
          "name": "endTime_",
          "type": "uint256"
        }
      ],
      "name": "setEndTimeStamp",
      "outputs": [
        {
          "name": "",
          "type": "uint256"
        }
      ],
      "payable": false,
      "stateMutability": "nonpayable",
      "type": "function"
    },
    {
      "constant": true,
      "inputs": [
        {
          "name": "",
          "type": "uint256"
        }
      ],
      "name": "titleVote",
      "outputs": [
        {
          "name": "",
          "type": "string"
        }
      ],
      "payable": false,
      "stateMutability": "view",
      "type": "function"
    },
    {
      "constant": false,
      "inputs": [],
      "name": "checkCreate",
      "outputs": [
        {
          "name": "already_",
          "type": "bool"
        }
      ],
      "payable": false,
      "stateMutability": "nonpayable",
      "type": "function"
    },
    {
      "constant": true,
      "inputs": [],
      "name": "timeNow",
      "outputs": [
        {
          "name": "",
          "type": "uint256"
        }
      ],
      "payable": false,
      "stateMutability": "view",
      "type": "function"
    },
    {
      "constant": true,
      "inputs": [],
      "name": "winnerName",
      "outputs": [
        {
          "name": "",
          "type": "string"
        }
      ],
      "payable": false,
      "stateMutability": "view",
      "type": "function"
    },
    {
      "constant": true,
      "inputs": [],
      "name": "startTimeStamp",
      "outputs": [
        {
          "name": "",
          "type": "uint256"
        }
      ],
      "payable": false,
      "stateMutability": "view",
      "type": "function"
    },
    {
      "constant": false,
      "inputs": [],
      "name": "getStartTimeStamp",
      "outputs": [
        {
          "name": "startTimeStamp_",
          "type": "uint256"
        }
      ],
      "payable": false,
      "stateMutability": "nonpayable",
      "type": "function"
    },
    {
      "constant": true,
      "inputs": [
        {
          "name": "",
          "type": "uint256"
        }
      ],
      "name": "scoreAll",
      "outputs": [
        {
          "name": "",
          "type": "uint256"
        }
      ],
      "payable": false,
      "stateMutability": "view",
      "type": "function"
    },
    {
      "constant": false,
      "inputs": [],
      "name": "getTitle",
      "outputs": [
        {
          "name": "nameTitle_",
          "type": "string"
        }
      ],
      "payable": false,
      "stateMutability": "nonpayable",
      "type": "function"
    }
  ],
  "bytecode": "0x60606040526000600960006101000a81548160ff021916908315150217905550341561002a57600080fd5b61144a806100396000396000f30060606040526004361061016a576000357c0100000000000000000000000000000000000000000000000000000000900463ffffffff1680630121b93f1461016f578063013cf08b14610187578063214e5c74146101cd5780632352ee60146101fa5780632e4176cf146102235780633343414b146102785780633e84531c146102a157806350c90b0f146102ca57806351906bb014610334578063609ff1bd1461035d57806378e979251461038657806388aa62d0146103af578063949966801461040e5780639a45fa6e146104455780639e4c6824146104e95780639e7b8d6114610512578063a3ec138d14610540578063af88b114146105d2578063bbe4fd50146105fb578063c456354e14610619578063d3d73abd14610650578063d8b34d78146106de578063d95660be1461070b578063e2ba53f014610734578063f38d00f0146107c2578063f6d4ec26146107eb578063fc14a2d814610814578063ff3c1a8f1461084b575b600080fd5b61018560048080359060200190919050506108d9565b005b341561019257600080fd5b6101a8600480803590602001909190505061091c565b6040518083600019166000191681526020018281526020019250505060405180910390f35b34156101d857600080fd5b6101e061094f565b604051808215151515815260200191505060405180910390f35b341561020557600080fd5b61020d610962565b6040518082815260200191505060405180910390f35b341561022e57600080fd5b61023661096f565b604051808273ffffffffffffffffffffffffffffffffffffffff1673ffffffffffffffffffffffffffffffffffffffff16815260200191505060405180910390f35b341561028357600080fd5b61028b610994565b6040518082815260200191505060405180910390f35b34156102ac57600080fd5b6102b461099e565b6040518082815260200191505060405180910390f35b34156102d557600080fd5b6102dd6109a4565b6040518080602001828103825283818151815260200191508051906020019060200280838360005b83811015610320578082015181840152602081019050610305565b505050509050019250505060405180910390f35b341561033f57600080fd5b610347610a06565b6040518082815260200191505060405180910390f35b341561036857600080fd5b610370610a0c565b6040518082815260200191505060405180910390f35b341561039157600080fd5b610399610a87565b6040518082815260200191505060405180910390f35b6103b7610a8d565b6040518080602001828103825283818151815260200191508051906020019060200280838360005b838110156103fa5780820151818401526020810190506103df565b505050509050019250505060405180910390f35b341561041957600080fd5b61042f6004808035906020019091905050610b20565b6040518082815260200191505060405180910390f35b6104e7600480803590602001908201803590602001908080601f0160208091040260200160405190810160405280939291908181526020018383808284378201915050505050509190803590602001908201803590602001908080602002602001604051908101604052809392919081815260200183836020028082843782019150505050505091908035906020019091908035906020019091905050610b2e565b005b34156104f457600080fd5b6104fc610cc9565b6040518082815260200191505060405180910390f35b61053e600480803573ffffffffffffffffffffffffffffffffffffffff16906020019091905050610cd3565b005b341561054b57600080fd5b610577600480803573ffffffffffffffffffffffffffffffffffffffff16906020019091905050610e20565b60405180858152602001841515151581526020018373ffffffffffffffffffffffffffffffffffffffff1673ffffffffffffffffffffffffffffffffffffffff16815260200182815260200194505050505060405180910390f35b34156105dd57600080fd5b6105e5610e7d565b6040518082815260200191505060405180910390f35b610603610e83565b6040518082815260200191505060405180910390f35b341561062457600080fd5b61063a6004808035906020019091905050610e94565b6040518082815260200191505060405180910390f35b341561065b57600080fd5b610663610ea2565b6040518080602001828103825283818151815260200191508051906020019080838360005b838110156106a3578082015181840152602081019050610688565b50505050905090810190601f1680156106d05780820380516001836020036101000a031916815260200191505b509250505060405180910390f35b34156106e957600080fd5b6106f1610f40565b604051808215151515815260200191505060405180910390f35b341561071657600080fd5b61071e610f57565b6040518082815260200191505060405180910390f35b341561073f57600080fd5b610747610f5d565b6040518080602001828103825283818151815260200191508051906020019080838360005b8381101561078757808201518184015260208101905061076c565b50505050905090810190601f1680156107b45780820380516001836020036101000a031916815260200191505b509250505060405180910390f35b34156107cd57600080fd5b6107d5611174565b6040518082815260200191505060405180910390f35b34156107f657600080fd5b6107fe61117a565b6040518082815260200191505060405180910390f35b341561081f57600080fd5b6108356004808035906020019091905050611184565b6040518082815260200191505060405180910390f35b341561085657600080fd5b61085e6111a8565b6040518080602001828103825283818151815260200191508051906020019080838360005b8381101561089e578082015181840152602081019050610883565b50505050905090810190601f1680156108cb5780820380516001836020036101000a031916815260200191505b509250505060405180910390f35b60016004600082825401925050819055506001600b828154811015156108fb57fe5b90600052602060002090600202016001016000828254019250508190555050565b600b8181548110151561092b57fe5b90600052602060002090600202016000915090508060000154908060010154905082565b600960009054906101000a900460ff1681565b6000600b80549050905090565b6000809054906101000a900473ffffffffffffffffffffffffffffffffffffffff1681565b6000600854905090565b60015481565b6109ac611250565b600c8054806020026020016040519081016040528092919081815260200182805480156109fc57602002820191906000526020600020905b815460001916815260200190600101908083116109e4575b5050505050905090565b60085481565b6000806000809150600090505b600b80549050811015610a825781600b82815481101515610a3657fe5b9060005260206000209060020201600101541115610a7557600b81815481101515610a5d57fe5b90600052602060002090600202016001015491508092505b8080600101915050610a19565b505090565b60025481565b610a95611264565b6000600b80549050604051805910610aaa5750595b90808252806020026020018201604052509150600090505b600b80549050811015610b1957600b81815481101515610ade57fe5b9060005260206000209060020201600101548282815181101515610afe57fe5b90602001906020020181815250508080600101915050610ac2565b8191505090565b600081600781905550919050565b6000336000806101000a81548173ffffffffffffffffffffffffffffffffffffffff021916908373ffffffffffffffffffffffffffffffffffffffff1602179055506001600a60008060009054906101000a900473ffffffffffffffffffffffffffffffffffffffff1673ffffffffffffffffffffffffffffffffffffffff1673ffffffffffffffffffffffffffffffffffffffff1681526020019081526020016000206000018190555081600181905550826002819055508460059080519060200190610bfd929190611278565b5083600c9080519060200190610c149291906112f8565b506001600960006101000a81548160ff021916908315150217905550600090505b8351811015610cc257600b8054806001018281610c52919061134b565b9160005260206000209060020201600060408051908101604052808886815181101515610c7b57fe5b906020019060200201516000191681526020016000815250909190915060008201518160000190600019169055602082015181600101555050508080600101915050610c35565b5050505050565b6000600454905090565b6000809054906101000a900473ffffffffffffffffffffffffffffffffffffffff1673ffffffffffffffffffffffffffffffffffffffff163373ffffffffffffffffffffffffffffffffffffffff16148015610d7c5750600a60008273ffffffffffffffffffffffffffffffffffffffff1673ffffffffffffffffffffffffffffffffffffffff16815260200190815260200160002060010160009054906101000a900460ff16155b8015610dca57506000600a60008373ffffffffffffffffffffffffffffffffffffffff1673ffffffffffffffffffffffffffffffffffffffff16815260200190815260200160002060000154145b1515610dd557600080fd5b6001600a60008373ffffffffffffffffffffffffffffffffffffffff1673ffffffffffffffffffffffffffffffffffffffff1681526020019081526020016000206000018190555050565b600a6020528060005260406000206000915090508060000154908060010160009054906101000a900460ff16908060010160019054906101000a900473ffffffffffffffffffffffffffffffffffffffff16908060020154905084565b60045481565b600042600381905550600354905090565b600081600881905550919050565b60058054600181600116156101000203166002900480601f016020809104026020016040519081016040528092919081815260200182805460018160011615610100020316600290048015610f385780601f10610f0d57610100808354040283529160200191610f38565b820191906000526020600020905b815481529060010190602001808311610f1b57829003601f168201915b505050505081565b6000600960009054906101000a900460ff16905090565b60035481565b610f6561137d565b610f6d611391565b600080600080610f7b611391565b6020604051805910610f8a5750595b9080825280601f01601f19166020018201604052509550600b610fab610a0c565b815481101515610fb757fe5b906000526020600020906002020160000154945060009350600092505b6020831015611092578260080260020a856001900402600102915060007f010000000000000000000000000000000000000000000000000000000000000002827effffffffffffffffffffffffffffffffffffffffffffffffffffffffffffff19161415156110855781868581518110151561104c57fe5b9060200101907effffffffffffffffffffffffffffffffffffffffffffffffffffffffffffff1916908160001a90535083806001019450505b8280600101935050610fd4565b836040518059106110a05750595b9080825280601f01601f19166020018201604052509050600092505b838310156111685785838151811015156110d257fe5b9060200101517f010000000000000000000000000000000000000000000000000000000000000090047f010000000000000000000000000000000000000000000000000000000000000002818481518110151561112b57fe5b9060200101907effffffffffffffffffffffffffffffffffffffffffffffffffffffffffffff1916908160001a90535082806001019350506110bc565b80965050505050505090565b60075481565b6000600754905090565b60068181548110151561119357fe5b90600052602060002090016000915090505481565b6111b061137d565b60058054600181600116156101000203166002900480601f0160208091040260200160405190810160405280929190818152602001828054600181600116156101000203166002900480156112465780601f1061121b57610100808354040283529160200191611246565b820191906000526020600020905b81548152906001019060200180831161122957829003601f168201915b5050505050905090565b602060405190810160405280600081525090565b602060405190810160405280600081525090565b828054600181600116156101000203166002900490600052602060002090601f016020900481019282601f106112b957805160ff19168380011785556112e7565b828001600101855582156112e7579182015b828111156112e65782518255916020019190600101906112cb565b5b5090506112f491906113a5565b5090565b82805482825590600052602060002090810192821561133a579160200282015b82811115611339578251829060001916905591602001919060010190611318565b5b50905061134791906113ca565b5090565b8154818355818115116113785760020281600202836000526020600020918201910161137791906113ef565b5b505050565b602060405190810160405280600081525090565b602060405190810160405280600081525090565b6113c791905b808211156113c35760008160009055506001016113ab565b5090565b90565b6113ec91905b808211156113e85760008160009055506001016113d0565b5090565b90565b61141b91905b80821115611417576000808201600090556001820160009055506002016113f5565b5090565b905600a165627a7a723058201ee842a98fd7e715dbfdd27455cf3201c6664caf23aa352ffd961338f01572190029",
  "source": "pragma solidity ^0.4.16;\n\n/// @title Voting with delegation.\ncontract Ballot {\n    // This declares a new complex type which will\n    // be used for variables later.\n    // It will represent a single voter.\n    struct Voter {\n        uint weight; // weight is accumulated by delegation\n        bool voted;  // if true, that person already voted\n        address delegate; // person delegated to\n        uint vote;   // index of the voted proposal\n    }\n\n    // This is a type for a single proposal.\n    struct Proposal {\n        bytes32 name;   // short name (up to 32 bytes)\n        uint voteCount; // number of accumulated votes\n    }\n\n    address public chairperson;\n    uint public timeToExpiry;\n    uint public startTime;\n    uint public timeNow;\n    uint public voteCountNow;\n    string public titleVote;\n    uint[] public scoreAll;\n    uint public startTimeStamp;\n    uint public endTimeStamp;\n    bool public createCan = false;\n\n    // This declares a state variable that\n    // stores a `Voter` struct for each possible address.\n    mapping(address => Voter) public voters;\n\n    // A dynamically-sized array of `Proposal` structs.\n    Proposal[] public proposals;\n    bytes32[] Candidate;\n\n    /// Create a new ballot to choose one of `proposalNames`.\n    function Ballot_box(string title_, bytes32[] proposalNames ,uint _startTime ,uint _timeToExpiry) public payable{\n        chairperson = msg.sender;\n        voters[chairperson].weight = 1;\n        timeToExpiry = _timeToExpiry;\n        startTime = _startTime;\n        titleVote = title_;\n        Candidate = proposalNames;\n        createCan = true;\n\n        // For each of the provided proposal names,\n        // create a new proposal object and add it\n        // to the end of the array.\n        for (uint i = 0; i < proposalNames.length; i++) {\n            // `Proposal({...})` creates a temporary\n            // Proposal object and `proposals.push(...)`\n            // appends it to the end of `proposals`.\n            proposals.push(Proposal({\n                name: proposalNames[i],\n                voteCount: 0\n            }));\n        }\n    }\n\n    function setStartTimeStamp(uint startTime_) public returns (uint){\n        startTimeStamp = startTime_;\n    }\n\n    function setEndTimeStamp(uint endTime_) public returns (uint){\n        endTimeStamp = endTime_;\n    }\n\n    function getStartTimeStamp() public returns (uint startTimeStamp_) {\n        startTimeStamp_ = startTimeStamp;\n    }\n\n    function getEndTimeStamp() public returns (uint endTimeStamp_) {\n        endTimeStamp_ = endTimeStamp;\n    }\n\n    function checkCreate() public returns (bool already_){\n        already_ = createCan;\n    }\n\n    function getTitle() public returns (string nameTitle_) {\n        nameTitle_ = titleVote;\n    }\n    \n    function getProposalsName() public constant returns (bytes32[] nameCandi_) {\n        nameCandi_ = Candidate;\n    }\n\n    // function getProposalsName(bytes32[] Candidate) public returns (bytes32[]) {\n    //     bytes memory bytesString = new bytes(Candidate.length * 32);\n    //     uint urlLength;\n    //     for (uint i=0; i<Candidate.length; i++) {\n    //         for (uint j=0; j<32; j++) {\n    //             byte char = byte(bytes32(uint(Candidate[i]) * 2 ** (8 * j)));\n    //             if (char != 0) {\n    //                 bytesString[urlLength] = char;\n    //                 urlLength += 1;\n    //             }\n    //         }\n    //     }\n    //     bytes32[] bytesStringTrimmed;\n    //     for (i=0; i<urlLength; i++) {\n    //         bytesStringTrimmed[i] = bytesString[i];\n    //     }\n    //     return bytesStringTrimmed;\n    // }   \n\n    function getProposalsCounts() public constant returns (uint) {\n        return (proposals.length);\n    }   \n\n\n    // Give `voter` the right to vote on this ballot.\n    // May only be called by `chairperson`.\n    function giveRightToVote(address voter) public payable{\n        // If the argument of `require` evaluates to `false`,\n        // it terminates and reverts all changes to\n        // the state and to Ether balances. It is often\n        // a good idea to use this if functions are\n        // called incorrectly. But watch out, this\n        // will currently also consume all provided gas\n        // (this is planned to change in the future).\n        require(\n            (msg.sender == chairperson) &&\n            !voters[voter].voted &&\n            (voters[voter].weight == 0)\n        );\n        voters[voter].weight = 1;\n    }\n\n    /// Give your vote (including votes delegated to you)\n    /// to proposal `proposals[proposal].name`.\n    function vote(uint proposal) public payable{\n        // Voter storage sender = voters[msg.sender];\n        // require((!sender.voted) &&\n        //     (voters[msg.sender].weight == 1) &&\n        //     (now < timeToExpiry) &&\n        //     (now > startTime));\n        // sender.voted = true;\n        // sender.vote = proposal;\n\n        // If `proposal` is out of the range of the array,\n        // this will throw automatically and revert all\n        // changes.\n        voteCountNow += 1;\n        proposals[proposal].voteCount += 1;\n    }\n\n    function getVoteCountNow() public constant returns (uint) {\n        return voteCountNow;\n    }\n\n    /// @dev Computes the winning proposal taking all\n    /// previous votes into account.\n    function winningProposal() public view\n            returns (uint winningProposal_)\n    {\n        uint winningVoteCount = 0;\n        for (uint p = 0; p < proposals.length; p++) {\n            if (proposals[p].voteCount > winningVoteCount) {\n                winningVoteCount = proposals[p].voteCount;\n                winningProposal_ = p;\n            }\n        }\n    }\n\n    function scoreProposal() public payable returns(uint[] scoreProposal_) {\n        scoreProposal_ = new uint[](proposals.length);\n        for (uint i = 0; i < proposals.length; i++) {\n            scoreProposal_[i] = proposals[i].voteCount;\n        }\n        return scoreProposal_;\n    }\n    \n    function winnerName() public view  returns (string) {\n            bytes memory bytesString = new bytes(32);\n            bytes32 x = proposals[winningProposal()].name;\n            uint charCount = 0;\n        for (uint j = 0; j < 32; j++) {\n            byte char = byte(bytes32(uint(x) * 2 ** (8 * j)));\n                if (char != 0) {\n                    bytesString[charCount] = char;\n                    charCount++;\n                }\n            }\n        bytes memory winnerName_ = new bytes(charCount);\n        for (j = 0; j < charCount; j++) {\n            winnerName_[j] = bytesString[j];\n        }\n    return string(winnerName_);\n\n}\n    function getNow() public payable returns (uint){\n        timeNow = now;\n        return timeNow;\n    }\n    \n    \n\n    // Calls winningProposal() function to get the index\n    // of the winner contained in the proposals array and then\n    // returns the name of the winner\n    // function winnerName() public view \n    //        returns (bytes32 winnerName_)\n    //{\n    //    winnerName_ = proposals[winningProposal()].name;\n    //}\n\n}",
  "sourcePath": "/Users/lab508/Desktop/web5.0/contracts/ballot.sol",
  "compiler": {
    "name": "solc",
    "version": "0.4.18+commit.9cf6e910.Emscripten.clang"
  },
  "schemaVersion": "1.0.1",
  "updatedAt": "2018-05-20T16:25:53.604Z"
}