{
  "contractName": "Ballot",
  "abi": [
    {
      "constant": true,
      "inputs": [
        {
          "name": "",
          "type": "uint256"
        }
      ],
      "name": "proposals",
      "outputs": [
        {
          "name": "name",
          "type": "bytes32"
        },
        {
          "name": "voteCount",
          "type": "uint256"
        }
      ],
      "payable": false,
      "stateMutability": "view",
      "type": "function"
    },
    {
      "constant": true,
      "inputs": [],
      "name": "chairperson",
      "outputs": [
        {
          "name": "",
          "type": "address"
        }
      ],
      "payable": false,
      "stateMutability": "view",
      "type": "function"
    },
    {
      "constant": true,
      "inputs": [],
      "name": "timeToExpiry",
      "outputs": [
        {
          "name": "",
          "type": "uint256"
        }
      ],
      "payable": false,
      "stateMutability": "view",
      "type": "function"
    },
    {
      "constant": true,
      "inputs": [],
      "name": "startTime",
      "outputs": [
        {
          "name": "",
          "type": "uint256"
        }
      ],
      "payable": false,
      "stateMutability": "view",
      "type": "function"
    },
    {
      "constant": true,
      "inputs": [
        {
          "name": "",
          "type": "address"
        }
      ],
      "name": "voters",
      "outputs": [
        {
          "name": "weight",
          "type": "uint256"
        },
        {
          "name": "voted",
          "type": "bool"
        },
        {
          "name": "delegate",
          "type": "address"
        },
        {
          "name": "vote",
          "type": "uint256"
        }
      ],
      "payable": false,
      "stateMutability": "view",
      "type": "function"
    },
    {
      "constant": true,
      "inputs": [],
      "name": "voteCountNow",
      "outputs": [
        {
          "name": "",
          "type": "uint256"
        }
      ],
      "payable": false,
      "stateMutability": "view",
      "type": "function"
    },
    {
      "constant": true,
      "inputs": [],
      "name": "timeNow",
      "outputs": [
        {
          "name": "",
          "type": "uint256"
        }
      ],
      "payable": false,
      "stateMutability": "view",
      "type": "function"
    },
    {
      "constant": true,
      "inputs": [
        {
          "name": "",
          "type": "uint256"
        }
      ],
      "name": "scoreAll",
      "outputs": [
        {
          "name": "",
          "type": "uint256"
        }
      ],
      "payable": false,
      "stateMutability": "view",
      "type": "function"
    },
    {
      "constant": false,
      "inputs": [
        {
          "name": "proposalNames",
          "type": "bytes32[]"
        },
        {
          "name": "_startTime",
          "type": "uint256"
        },
        {
          "name": "_timeToExpiry",
          "type": "uint256"
        }
      ],
      "name": "Ballot_box",
      "outputs": [],
      "payable": true,
      "stateMutability": "payable",
      "type": "function"
    },
    {
      "constant": true,
      "inputs": [],
      "name": "getProposalsName",
      "outputs": [
        {
          "name": "nameCandi_",
          "type": "bytes32[]"
        }
      ],
      "payable": false,
      "stateMutability": "view",
      "type": "function"
    },
    {
      "constant": true,
      "inputs": [],
      "name": "getProposalsCounts",
      "outputs": [
        {
          "name": "",
          "type": "uint256"
        }
      ],
      "payable": false,
      "stateMutability": "view",
      "type": "function"
    },
    {
      "constant": false,
      "inputs": [
        {
          "name": "voter",
          "type": "address"
        }
      ],
      "name": "giveRightToVote",
      "outputs": [],
      "payable": true,
      "stateMutability": "payable",
      "type": "function"
    },
    {
      "constant": false,
      "inputs": [
        {
          "name": "proposal",
          "type": "uint256"
        }
      ],
      "name": "vote",
      "outputs": [],
      "payable": true,
      "stateMutability": "payable",
      "type": "function"
    },
    {
      "constant": true,
      "inputs": [],
      "name": "getVoteCountNow",
      "outputs": [
        {
          "name": "",
          "type": "uint256"
        }
      ],
      "payable": false,
      "stateMutability": "view",
      "type": "function"
    },
    {
      "constant": true,
      "inputs": [],
      "name": "winningProposal",
      "outputs": [
        {
          "name": "winningProposal_",
          "type": "uint256"
        }
      ],
      "payable": false,
      "stateMutability": "view",
      "type": "function"
    },
    {
      "constant": false,
      "inputs": [],
      "name": "scoreProposal",
      "outputs": [
        {
          "name": "scoreProposal_",
          "type": "uint256[]"
        }
      ],
      "payable": true,
      "stateMutability": "payable",
      "type": "function"
    },
    {
      "constant": true,
      "inputs": [],
      "name": "winnerName",
      "outputs": [
        {
          "name": "",
          "type": "string"
        }
      ],
      "payable": false,
      "stateMutability": "view",
      "type": "function"
    },
    {
      "constant": false,
      "inputs": [],
      "name": "getNow",
      "outputs": [
        {
          "name": "",
          "type": "uint256"
        }
      ],
      "payable": true,
      "stateMutability": "payable",
      "type": "function"
    }
  ],
  "bytecode": "0x608060405234801561001057600080fd5b50610f31806100206000396000f3006080604052600436106100fc576000357c0100000000000000000000000000000000000000000000000000000000900463ffffffff1680630121b93f14610101578063013cf08b146101215780631b4a5db0146101715780632352ee60146101de5780632e4176cf146102095780633e84531c1461026057806350c90b0f1461028b578063609ff1bd146102f757806378e979251461032257806388aa62d01461034d5780639e4c6824146103ac5780639e7b8d61146103d7578063a3ec138d1461040d578063af88b114146104a9578063bbe4fd50146104d4578063d95660be146104f2578063e2ba53f01461051d578063fc14a2d8146105ad575b600080fd5b61011f600480360381019080803590602001909291905050506105ee565b005b34801561012d57600080fd5b5061014c60048036038101908080359060200190929190505050610721565b6040518083600019166000191681526020018281526020019250505060405180910390f35b6101dc600480360381019080803590602001908201803590602001908080602002602001604051908101604052809392919081815260200183836020028082843782019150505050505091929192908035906020019092919080359060200190929190505050610754565b005b3480156101ea57600080fd5b506101f36108c0565b6040518082815260200191505060405180910390f35b34801561021557600080fd5b5061021e6108cd565b604051808273ffffffffffffffffffffffffffffffffffffffff1673ffffffffffffffffffffffffffffffffffffffff16815260200191505060405180910390f35b34801561026c57600080fd5b506102756108f2565b6040518082815260200191505060405180910390f35b34801561029757600080fd5b506102a06108f8565b6040518080602001828103825283818151815260200191508051906020019060200280838360005b838110156102e35780820151818401526020810190506102c8565b505050509050019250505060405180910390f35b34801561030357600080fd5b5061030c610954565b6040518082815260200191505060405180910390f35b34801561032e57600080fd5b506103376109cf565b6040518082815260200191505060405180910390f35b6103556109d5565b6040518080602001828103825283818151815260200191508051906020019060200280838360005b8381101561039857808201518184015260208101905061037d565b505050509050019250505060405180910390f35b3480156103b857600080fd5b506103c1610a73565b6040518082815260200191505060405180910390f35b61040b600480360381019080803573ffffffffffffffffffffffffffffffffffffffff169060200190929190505050610a7d565b005b34801561041957600080fd5b5061044e600480360381019080803573ffffffffffffffffffffffffffffffffffffffff169060200190929190505050610bca565b60405180858152602001841515151581526020018373ffffffffffffffffffffffffffffffffffffffff1673ffffffffffffffffffffffffffffffffffffffff16815260200182815260200194505050505060405180910390f35b3480156104b557600080fd5b506104be610c27565b6040518082815260200191505060405180910390f35b6104dc610c2d565b6040518082815260200191505060405180910390f35b3480156104fe57600080fd5b50610507610c3e565b6040518082815260200191505060405180910390f35b34801561052957600080fd5b50610532610c44565b6040518080602001828103825283818151815260200191508051906020019080838360005b83811015610572578082015181840152602081019050610557565b50505050905090810190601f16801561059f5780820380516001836020036101000a031916815260200191505b509250505060405180910390f35b3480156105b957600080fd5b506105d860048036038101908080359060200190929190505050610e6a565b6040518082815260200191505060405180910390f35b6000600660003373ffffffffffffffffffffffffffffffffffffffff1673ffffffffffffffffffffffffffffffffffffffff16815260200190815260200160002090508060010160009054906101000a900460ff1615801561069257506001600660003373ffffffffffffffffffffffffffffffffffffffff1673ffffffffffffffffffffffffffffffffffffffff16815260200190815260200160002060000154145b801561069f575060015442105b80156106ac575060025442115b15156106b757600080fd5b60018160010160006101000a81548160ff021916908315150217905550818160020181905550600160046000828254019250508190555060016007838154811015156106ff57fe5b9060005260206000209060020201600101600082825401925050819055505050565b60078181548110151561073057fe5b90600052602060002090600202016000915090508060000154908060010154905082565b6000336000806101000a81548173ffffffffffffffffffffffffffffffffffffffff021916908373ffffffffffffffffffffffffffffffffffffffff1602179055506001600660008060009054906101000a900473ffffffffffffffffffffffffffffffffffffffff1673ffffffffffffffffffffffffffffffffffffffff1673ffffffffffffffffffffffffffffffffffffffff1681526020019081526020016000206000018190555081600181905550826002819055508360089080519060200190610823929190610e8d565b50600090505b83518110156108ba5760076040805190810160405280868481518110151561084d57fe5b9060200190602002015160001916815260200160008152509080600181540180825580915050906001820390600052602060002090600202016000909192909190915060008201518160000190600019169055602082015181600101555050508080600101915050610829565b50505050565b6000600780549050905090565b6000809054906101000a900473ffffffffffffffffffffffffffffffffffffffff1681565b60015481565b6060600880548060200260200160405190810160405280929190818152602001828054801561094a57602002820191906000526020600020905b81546000191681526020019060010190808311610932575b5050505050905090565b6000806000809150600090505b6007805490508110156109ca578160078281548110151561097e57fe5b90600052602060002090600202016001015411156109bd576007818154811015156109a557fe5b90600052602060002090600202016001015491508092505b8080600101915050610961565b505090565b60025481565b60606000600780549050604051908082528060200260200182016040528015610a0d5781602001602082028038833980820191505090505b509150600090505b600780549050811015610a6c57600781815481101515610a3157fe5b9060005260206000209060020201600101548282815181101515610a5157fe5b90602001906020020181815250508080600101915050610a15565b8191505090565b6000600454905090565b6000809054906101000a900473ffffffffffffffffffffffffffffffffffffffff1673ffffffffffffffffffffffffffffffffffffffff163373ffffffffffffffffffffffffffffffffffffffff16148015610b265750600660008273ffffffffffffffffffffffffffffffffffffffff1673ffffffffffffffffffffffffffffffffffffffff16815260200190815260200160002060010160009054906101000a900460ff16155b8015610b7457506000600660008373ffffffffffffffffffffffffffffffffffffffff1673ffffffffffffffffffffffffffffffffffffffff16815260200190815260200160002060000154145b1515610b7f57600080fd5b6001600660008373ffffffffffffffffffffffffffffffffffffffff1673ffffffffffffffffffffffffffffffffffffffff1681526020019081526020016000206000018190555050565b60066020528060005260406000206000915090508060000154908060010160009054906101000a900460ff16908060010160019054906101000a900473ffffffffffffffffffffffffffffffffffffffff16908060020154905084565b60045481565b600042600381905550600354905090565b60035481565b606080600080600080606060206040519080825280601f01601f191660200182016040528015610c835781602001602082028038833980820191505090505b5095506007610c90610954565b815481101515610c9c57fe5b906000526020600020906002020160000154945060009350600092505b6020831015610d77578260080260020a856001900402600102915060007f010000000000000000000000000000000000000000000000000000000000000002827effffffffffffffffffffffffffffffffffffffffffffffffffffffffffffff1916141515610d6a57818685815181101515610d3157fe5b9060200101907effffffffffffffffffffffffffffffffffffffffffffffffffffffffffffff1916908160001a90535083806001019450505b8280600101935050610cb9565b836040519080825280601f01601f191660200182016040528015610daa5781602001602082028038833980820191505090505b509050600092505b83831015610e5e578583815181101515610dc857fe5b9060200101517f010000000000000000000000000000000000000000000000000000000000000090047f0100000000000000000000000000000000000000000000000000000000000000028184815181101515610e2157fe5b9060200101907effffffffffffffffffffffffffffffffffffffffffffffffffffffffffffff1916908160001a9053508280600101935050610db2565b80965050505050505090565b600581815481101515610e7957fe5b906000526020600020016000915090505481565b828054828255906000526020600020908101928215610ecf579160200282015b82811115610ece578251829060001916905591602001919060010190610ead565b5b509050610edc9190610ee0565b5090565b610f0291905b80821115610efe576000816000905550600101610ee6565b5090565b905600a165627a7a7230582025b505dba839fbee446978803beda7d6bdc45a811f55c01abb2a0e668c0b05be0029",
  "source": "pragma solidity ^0.4.16;\r\n\r\n/// @title Voting with delegation.\r\ncontract Ballot {\r\n    // This declares a new complex type which will\r\n    // be used for variables later.\r\n    // It will represent a single voter.\r\n    struct Voter {\r\n        uint weight; // weight is accumulated by delegation\r\n        bool voted;  // if true, that person already voted\r\n        address delegate; // person delegated to\r\n        uint vote;   // index of the voted proposal\r\n    }\r\n\r\n    // This is a type for a single proposal.\r\n    struct Proposal {\r\n        bytes32 name;   // short name (up to 32 bytes)\r\n        uint voteCount; // number of accumulated votes\r\n    }\r\n\r\n    address public chairperson;\r\n    uint public timeToExpiry;\r\n    uint public startTime;\r\n    uint public timeNow;\r\n    uint public voteCountNow;\r\n    uint[] public scoreAll;\r\n\r\n    // This declares a state variable that\r\n    // stores a `Voter` struct for each possible address.\r\n    mapping(address => Voter) public voters;\r\n\r\n    // A dynamically-sized array of `Proposal` structs.\r\n    Proposal[] public proposals;\r\n    bytes32[] Candidate;\r\n\r\n    /// Create a new ballot to choose one of `proposalNames`.\r\n    function Ballot_box(bytes32[] proposalNames ,uint _startTime ,uint _timeToExpiry) public payable{\r\n        chairperson = msg.sender;\r\n        voters[chairperson].weight = 1;\r\n        timeToExpiry = _timeToExpiry;\r\n        startTime = _startTime;\r\n        Candidate = proposalNames;\r\n\r\n        // For each of the provided proposal names,\r\n        // create a new proposal object and add it\r\n        // to the end of the array.\r\n        for (uint i = 0; i < proposalNames.length; i++) {\r\n            // `Proposal({...})` creates a temporary\r\n            // Proposal object and `proposals.push(...)`\r\n            // appends it to the end of `proposals`.\r\n            proposals.push(Proposal({\r\n                name: proposalNames[i],\r\n                voteCount: 0\r\n            }));\r\n        }\r\n    }\r\n    \r\n    function getProposalsName() public constant returns (bytes32[] nameCandi_) {\r\n        nameCandi_ = Candidate;\r\n    }\r\n\r\n    // function getProposalsName(bytes32[] Candidate) public returns (bytes32[]) {\r\n    //     bytes memory bytesString = new bytes(Candidate.length * 32);\r\n    //     uint urlLength;\r\n    //     for (uint i=0; i<Candidate.length; i++) {\r\n    //         for (uint j=0; j<32; j++) {\r\n    //             byte char = byte(bytes32(uint(Candidate[i]) * 2 ** (8 * j)));\r\n    //             if (char != 0) {\r\n    //                 bytesString[urlLength] = char;\r\n    //                 urlLength += 1;\r\n    //             }\r\n    //         }\r\n    //     }\r\n    //     bytes32[] bytesStringTrimmed;\r\n    //     for (i=0; i<urlLength; i++) {\r\n    //         bytesStringTrimmed[i] = bytesString[i];\r\n    //     }\r\n    //     return bytesStringTrimmed;\r\n    // }   \r\n\r\n    function getProposalsCounts() public constant returns (uint) {\r\n        return (proposals.length);\r\n    }   \r\n\r\n\r\n    // Give `voter` the right to vote on this ballot.\r\n    // May only be called by `chairperson`.\r\n    function giveRightToVote(address voter) public payable{\r\n        // If the argument of `require` evaluates to `false`,\r\n        // it terminates and reverts all changes to\r\n        // the state and to Ether balances. It is often\r\n        // a good idea to use this if functions are\r\n        // called incorrectly. But watch out, this\r\n        // will currently also consume all provided gas\r\n        // (this is planned to change in the future).\r\n        require(\r\n            (msg.sender == chairperson) &&\r\n            !voters[voter].voted &&\r\n            (voters[voter].weight == 0)\r\n        );\r\n        voters[voter].weight = 1;\r\n    }\r\n\r\n    /// Give your vote (including votes delegated to you)\r\n    /// to proposal `proposals[proposal].name`.\r\n    function vote(uint proposal) public payable{\r\n        Voter storage sender = voters[msg.sender];\r\n        require((!sender.voted) &&\r\n            (voters[msg.sender].weight == 1) &&\r\n            (now < timeToExpiry) &&\r\n            (now > startTime));\r\n        sender.voted = true;\r\n        sender.vote = proposal;\r\n\r\n        // If `proposal` is out of the range of the array,\r\n        // this will throw automatically and revert all\r\n        // changes.\r\n        voteCountNow += 1;\r\n        proposals[proposal].voteCount += 1;\r\n    }\r\n\r\n    function getVoteCountNow() public constant returns (uint) {\r\n        return voteCountNow;\r\n    }\r\n\r\n    /// @dev Computes the winning proposal taking all\r\n    /// previous votes into account.\r\n    function winningProposal() public view\r\n            returns (uint winningProposal_)\r\n    {\r\n        uint winningVoteCount = 0;\r\n        for (uint p = 0; p < proposals.length; p++) {\r\n            if (proposals[p].voteCount > winningVoteCount) {\r\n                winningVoteCount = proposals[p].voteCount;\r\n                winningProposal_ = p;\r\n            }\r\n        }\r\n    }\r\n\r\n    function scoreProposal() public payable returns(uint[] scoreProposal_) {\r\n        scoreProposal_ = new uint[](proposals.length);\r\n        for (uint i = 0; i < proposals.length; i++) {\r\n            scoreProposal_[i] = proposals[i].voteCount;\r\n        }\r\n        return scoreProposal_;\r\n    }\r\n    \r\n    function winnerName() public view  returns (string) {\r\n            bytes memory bytesString = new bytes(32);\r\n            bytes32 x = proposals[winningProposal()].name;\r\n            uint charCount = 0;\r\n        for (uint j = 0; j < 32; j++) {\r\n            byte char = byte(bytes32(uint(x) * 2 ** (8 * j)));\r\n                if (char != 0) {\r\n                    bytesString[charCount] = char;\r\n                    charCount++;\r\n                }\r\n            }\r\n        bytes memory winnerName_ = new bytes(charCount);\r\n        for (j = 0; j < charCount; j++) {\r\n            winnerName_[j] = bytesString[j];\r\n        }\r\n    return string(winnerName_);\r\n\r\n}\r\n    function getNow() public payable returns (uint){\r\n        timeNow = now;\r\n        return timeNow;\r\n    }\r\n    \r\n    \r\n\r\n    // Calls winningProposal() function to get the index\r\n    // of the winner contained in the proposals array and then\r\n    // returns the name of the winner\r\n    // function winnerName() public view \r\n    //        returns (bytes32 winnerName_)\r\n    //{\r\n    //    winnerName_ = proposals[winningProposal()].name;\r\n    //}\r\n\r\n}",
  "sourcePath": "/Users/boom/Desktop/Electronic_vote/contracts/ballot.sol",
  "compiler": {
    "name": "solc",
    "version": "0.4.23+commit.124ca40d.Emscripten.clang"
  },
  "schemaVersion": "2.0.0",
  "updatedAt": "2018-05-18T22:49:48.853Z"
}