{
  "contractName": "Ballot",
  "abi": [
    {
      "constant": true,
      "inputs": [
        {
          "name": "",
          "type": "uint256"
        }
      ],
      "name": "proposals",
      "outputs": [
        {
          "name": "name",
          "type": "bytes32"
        },
        {
          "name": "voteCount",
          "type": "uint256"
        }
      ],
      "payable": false,
      "stateMutability": "view",
      "type": "function"
    },
    {
      "constant": true,
      "inputs": [],
      "name": "chairperson",
      "outputs": [
        {
          "name": "",
          "type": "address"
        }
      ],
      "payable": false,
      "stateMutability": "view",
      "type": "function"
    },
    {
      "constant": true,
      "inputs": [],
      "name": "timeToExpiry",
      "outputs": [
        {
          "name": "",
          "type": "uint256"
        }
      ],
      "payable": false,
      "stateMutability": "view",
      "type": "function"
    },
    {
      "constant": true,
      "inputs": [],
      "name": "startTime",
      "outputs": [
        {
          "name": "",
          "type": "uint256"
        }
      ],
      "payable": false,
      "stateMutability": "view",
      "type": "function"
    },
    {
      "constant": true,
      "inputs": [
        {
          "name": "",
          "type": "address"
        }
      ],
      "name": "voters",
      "outputs": [
        {
          "name": "weight",
          "type": "uint256"
        },
        {
          "name": "voted",
          "type": "bool"
        },
        {
          "name": "delegate",
          "type": "address"
        },
        {
          "name": "vote",
          "type": "uint256"
        }
      ],
      "payable": false,
      "stateMutability": "view",
      "type": "function"
    },
    {
      "constant": true,
      "inputs": [],
      "name": "timeNow",
      "outputs": [
        {
          "name": "",
          "type": "uint256"
        }
      ],
      "payable": false,
      "stateMutability": "view",
      "type": "function"
    },
    {
      "constant": false,
      "inputs": [
        {
          "name": "proposalNames",
          "type": "bytes32[]"
        },
        {
          "name": "_timeToExpiry",
          "type": "uint256"
        }
      ],
      "name": "Ballot_box",
      "outputs": [],
      "payable": true,
      "stateMutability": "payable",
      "type": "function"
    },
    {
      "constant": false,
      "inputs": [
        {
          "name": "voter",
          "type": "address"
        }
      ],
      "name": "giveRightToVote",
      "outputs": [],
      "payable": true,
      "stateMutability": "payable",
      "type": "function"
    },
    {
      "constant": false,
      "inputs": [
        {
          "name": "proposal",
          "type": "uint256"
        }
      ],
      "name": "vote",
      "outputs": [],
      "payable": true,
      "stateMutability": "payable",
      "type": "function"
    },
    {
      "constant": true,
      "inputs": [],
      "name": "winningProposal",
      "outputs": [
        {
          "name": "winningProposal_",
          "type": "uint256"
        }
      ],
      "payable": false,
      "stateMutability": "view",
      "type": "function"
    },
    {
      "constant": true,
      "inputs": [],
      "name": "winnerName",
      "outputs": [
        {
          "name": "",
          "type": "string"
        }
      ],
      "payable": false,
      "stateMutability": "view",
      "type": "function"
    },
    {
      "constant": false,
      "inputs": [],
      "name": "getNow",
      "outputs": [
        {
          "name": "",
          "type": "uint256"
        }
      ],
      "payable": true,
      "stateMutability": "payable",
      "type": "function"
    }
  ],
  "bytecode": "0x608060405234801561001057600080fd5b50610b73806100206000396000f3006080604052600436106100ba576000357c0100000000000000000000000000000000000000000000000000000000900463ffffffff1680630121b93f146100bf578063013cf08b146100df5780632e4176cf1461012f5780633e84531c14610186578063609ff1bd146101b157806371a32890146101dc57806378e979251461023f5780639e7b8d611461026a578063a3ec138d146102a0578063bbe4fd501461033c578063d95660be1461035a578063e2ba53f014610385575b600080fd5b6100dd60048036038101908080359060200190929190505050610415565b005b3480156100eb57600080fd5b5061010a6004803603810190808035906020019092919050505061052d565b6040518083600019166000191681526020018281526020019250505060405180910390f35b34801561013b57600080fd5b50610144610560565b604051808273ffffffffffffffffffffffffffffffffffffffff1673ffffffffffffffffffffffffffffffffffffffff16815260200191505060405180910390f35b34801561019257600080fd5b5061019b610585565b6040518082815260200191505060405180910390f35b3480156101bd57600080fd5b506101c661058b565b6040518082815260200191505060405180910390f35b61023d6004803603810190808035906020019082018035906020019080806020026020016040519081016040528093929190818152602001838360200280828437820191505050505050919291929080359060200190929190505050610606565b005b34801561024b57600080fd5b5061025461075a565b6040518082815260200191505060405180910390f35b61029e600480360381019080803573ffffffffffffffffffffffffffffffffffffffff169060200190929190505050610760565b005b3480156102ac57600080fd5b506102e1600480360381019080803573ffffffffffffffffffffffffffffffffffffffff1690602001909291905050506108ad565b60405180858152602001841515151581526020018373ffffffffffffffffffffffffffffffffffffffff1673ffffffffffffffffffffffffffffffffffffffff16815260200182815260200194505050505060405180910390f35b61034461090a565b6040518082815260200191505060405180910390f35b34801561036657600080fd5b5061036f61091b565b6040518082815260200191505060405180910390f35b34801561039157600080fd5b5061039a610921565b6040518080602001828103825283818151815260200191508051906020019080838360005b838110156103da5780820151818401526020810190506103bf565b50505050905090810190601f1680156104075780820380516001836020036101000a031916815260200191505b509250505060405180910390f35b6000600460003373ffffffffffffffffffffffffffffffffffffffff1673ffffffffffffffffffffffffffffffffffffffff16815260200190815260200160002090508060010160009054906101000a900460ff161580156104b957506001600460003373ffffffffffffffffffffffffffffffffffffffff1673ffffffffffffffffffffffffffffffffffffffff16815260200190815260200160002060000154145b80156104c6575060015442105b15156104d157600080fd5b60018160010160006101000a81548160ff021916908315150217905550818160020181905550806000015460058381548110151561050b57fe5b9060005260206000209060020201600101600082825401925050819055505050565b60058181548110151561053c57fe5b90600052602060002090600202016000915090508060000154908060010154905082565b6000809054906101000a900473ffffffffffffffffffffffffffffffffffffffff1681565b60015481565b6000806000809150600090505b60058054905081101561060157816005828154811015156105b557fe5b90600052602060002090600202016001015411156105f4576005818154811015156105dc57fe5b90600052602060002090600202016001015491508092505b8080600101915050610598565b505090565b6000336000806101000a81548173ffffffffffffffffffffffffffffffffffffffff021916908373ffffffffffffffffffffffffffffffffffffffff1602179055506001600460008060009054906101000a900473ffffffffffffffffffffffffffffffffffffffff1673ffffffffffffffffffffffffffffffffffffffff1673ffffffffffffffffffffffffffffffffffffffff168152602001908152602001600020600001819055508160018190555042600281905550600090505b8251811015610755576005604080519081016040528085848151811015156106e857fe5b90602001906020020151600019168152602001600081525090806001815401808255809150509060018203906000526020600020906002020160009091929091909150600082015181600001906000191690556020820151816001015550505080806001019150506106c4565b505050565b60025481565b6000809054906101000a900473ffffffffffffffffffffffffffffffffffffffff1673ffffffffffffffffffffffffffffffffffffffff163373ffffffffffffffffffffffffffffffffffffffff161480156108095750600460008273ffffffffffffffffffffffffffffffffffffffff1673ffffffffffffffffffffffffffffffffffffffff16815260200190815260200160002060010160009054906101000a900460ff16155b801561085757506000600460008373ffffffffffffffffffffffffffffffffffffffff1673ffffffffffffffffffffffffffffffffffffffff16815260200190815260200160002060000154145b151561086257600080fd5b6001600460008373ffffffffffffffffffffffffffffffffffffffff1673ffffffffffffffffffffffffffffffffffffffff1681526020019081526020016000206000018190555050565b60046020528060005260406000206000915090508060000154908060010160009054906101000a900460ff16908060010160019054906101000a900473ffffffffffffffffffffffffffffffffffffffff16908060020154905084565b600042600381905550600354905090565b60035481565b606080600080600080606060206040519080825280601f01601f1916602001820160405280156109605781602001602082028038833980820191505090505b509550600561096d61058b565b81548110151561097957fe5b906000526020600020906002020160000154945060009350600092505b6020831015610a54578260080260020a856001900402600102915060007f010000000000000000000000000000000000000000000000000000000000000002827effffffffffffffffffffffffffffffffffffffffffffffffffffffffffffff1916141515610a4757818685815181101515610a0e57fe5b9060200101907effffffffffffffffffffffffffffffffffffffffffffffffffffffffffffff1916908160001a90535083806001019450505b8280600101935050610996565b836040519080825280601f01601f191660200182016040528015610a875781602001602082028038833980820191505090505b509050600092505b83831015610b3b578583815181101515610aa557fe5b9060200101517f010000000000000000000000000000000000000000000000000000000000000090047f0100000000000000000000000000000000000000000000000000000000000000028184815181101515610afe57fe5b9060200101907effffffffffffffffffffffffffffffffffffffffffffffffffffffffffffff1916908160001a9053508280600101935050610a8f565b809650505050505050905600a165627a7a72305820033a0178117dfc84183ba999be283ccf90e988b8465b734947ef02624cb5d43d0029",
  "source": "    pragma solidity ^0.4.16;\r\n\r\n/// @title Voting with delegation.\r\ncontract Ballot {\r\n    // This declares a new complex type which will\r\n    // be used for variables later.\r\n    // It will represent a single voter.\r\n    struct Voter {\r\n        uint weight; // weight is accumulated by delegation\r\n        bool voted;  // if true, that person already voted\r\n        address delegate; // person delegated to\r\n        uint vote;   // index of the voted proposal\r\n    }\r\n\r\n    // This is a type for a single proposal.\r\n    struct Proposal {\r\n        bytes32 name;   // short name (up to 32 bytes)\r\n        uint voteCount; // number of accumulated votes\r\n    }\r\n\r\n    address public chairperson;\r\n    uint public timeToExpiry;\r\n    uint public startTime;\r\n    uint public timeNow;\r\n\r\n    // This declares a state variable that\r\n    // stores a `Voter` struct for each possible address.\r\n    mapping(address => Voter) public voters;\r\n\r\n    // A dynamically-sized array of `Proposal` structs.\r\n    Proposal[] public proposals;\r\n\r\n    /// Create a new ballot to choose one of `proposalNames`.\r\n    function Ballot_box(bytes32[] proposalNames ,uint _timeToExpiry) public payable{\r\n        chairperson = msg.sender;\r\n        voters[chairperson].weight = 1;\r\n        timeToExpiry = _timeToExpiry;\r\n        startTime = now;\r\n\r\n        // For each of the provided proposal names,\r\n        // create a new proposal object and add it\r\n        // to the end of the array.\r\n        for (uint i = 0; i < proposalNames.length; i++) {\r\n            // `Proposal({...})` creates a temporary\r\n            // Proposal object and `proposals.push(...)`\r\n            // appends it to the end of `proposals`.\r\n            proposals.push(Proposal({\r\n                name: proposalNames[i],\r\n                voteCount: 0\r\n            }));\r\n        }\r\n    }\r\n\r\n\r\n    // Give `voter` the right to vote on this ballot.\r\n    // May only be called by `chairperson`.\r\n    function giveRightToVote(address voter) public payable{\r\n        // If the argument of `require` evaluates to `false`,\r\n        // it terminates and reverts all changes to\r\n        // the state and to Ether balances. It is often\r\n        // a good idea to use this if functions are\r\n        // called incorrectly. But watch out, this\r\n        // will currently also consume all provided gas\r\n        // (this is planned to change in the future).\r\n        require(\r\n            (msg.sender == chairperson) &&\r\n            !voters[voter].voted &&\r\n            (voters[voter].weight == 0)\r\n        );\r\n        voters[voter].weight = 1;\r\n    }\r\n\r\n    // /// Delegate your vote to the voter `to`.\r\n    // function delegate(address to) public {\r\n    //     // assigns reference\r\n    //     Voter storage sender = voters[msg.sender];\r\n    //     require(!sender.voted);\r\n\r\n    //     // Self-delegation is not allowed.\r\n    //     require(to != msg.sender);\r\n        \r\n    //     // Forward the delegation as long as\r\n    //     // `to` also delegated.\r\n    //     // In general, such loops are very dangerous,\r\n    //     // because if they run too long, they might\r\n    //     // need more gas than is available in a block.\r\n    //     // In this case, the delegation will not be executed,\r\n    //     // but in other situations, such loops might\r\n    //     // cause a contract to get \"stuck\" completely.\r\n    //     while (voters[to].delegate != address(0)) {\r\n    //         to = voters[to].delegate;\r\n\r\n    //         // We found a loop in the delegation, not allowed.\r\n    //         require(to != msg.sender);\r\n    //     }\r\n\r\n    //     // Since `sender` is a reference, this\r\n    //     // modifies `voters[msg.sender].voted`\r\n    //     sender.voted = true;\r\n    //     sender.delegate = to;\r\n    //     Voter storage delegate_ = voters[to];\r\n    //     if (delegate_.voted) {\r\n    //         // If the delegate already voted,\r\n    //         // directly add to the number of votes\r\n    //         proposals[delegate_.vote].voteCount += sender.weight;\r\n    //     } else {\r\n    //         // If the delegate did not vote yet,\r\n    //         // add to her weight.\r\n    //         delegate_.weight += sender.weight;\r\n    //     }\r\n    // }\r\n\r\n    /// Give your vote (including votes delegated to you)\r\n    /// to proposal `proposals[proposal].name`.\r\n    function vote(uint proposal) public payable{\r\n        Voter storage sender = voters[msg.sender];\r\n        require((!sender.voted) &&\r\n            (voters[msg.sender].weight == 1) &&\r\n            (now < timeToExpiry));\r\n        sender.voted = true;\r\n        sender.vote = proposal;\r\n\r\n        // If `proposal` is out of the range of the array,\r\n        // this will throw automatically and revert all\r\n        // changes.\r\n        proposals[proposal].voteCount += sender.weight;\r\n    }\r\n\r\n    /// @dev Computes the winning proposal taking all\r\n    /// previous votes into account.\r\n    function winningProposal() public view\r\n            returns (uint winningProposal_)\r\n    {\r\n        uint winningVoteCount = 0;\r\n        for (uint p = 0; p < proposals.length; p++) {\r\n            if (proposals[p].voteCount > winningVoteCount) {\r\n                winningVoteCount = proposals[p].voteCount;\r\n                winningProposal_ = p;\r\n            }\r\n        }\r\n    }\r\n    \r\n    function winnerName() public view  returns (string) {\r\n            bytes memory bytesString = new bytes(32);\r\n            bytes32 x = proposals[winningProposal()].name;\r\n            uint charCount = 0;\r\n        for (uint j = 0; j < 32; j++) {\r\n            byte char = byte(bytes32(uint(x) * 2 ** (8 * j)));\r\n                if (char != 0) {\r\n                    bytesString[charCount] = char;\r\n                    charCount++;\r\n                }\r\n            }\r\n        bytes memory winnerName_ = new bytes(charCount);\r\n        for (j = 0; j < charCount; j++) {\r\n            winnerName_[j] = bytesString[j];\r\n        }\r\n    return string(winnerName_);\r\n\r\n}\r\n    function getNow() public payable returns (uint){\r\n        timeNow = now;\r\n        return timeNow;\r\n    }\r\n    \r\n    \r\n\r\n    // Calls winningProposal() function to get the index\r\n    // of the winner contained in the proposals array and then\r\n    // returns the name of the winner\r\n    // function winnerName() public view \r\n    //        returns (bytes32 winnerName_)\r\n    //{\r\n    //    winnerName_ = proposals[winningProposal()].name;\r\n    //}\r\n\r\n}",
  "sourcePath": "/Users/boom/Desktop/Electronic_vote/contracts/ballot.sol",
  "compiler": {
    "name": "solc",
    "version": "0.4.23+commit.124ca40d.Emscripten.clang"
  },
  "schemaVersion": "2.0.0",
  "updatedAt": "2018-05-11T15:32:48.787Z"
}