{
  "contractName": "Ballot",
  "abi": [
    {
      "constant": true,
      "inputs": [
        {
          "name": "",
          "type": "uint256"
        }
      ],
      "name": "proposals",
      "outputs": [
        {
          "name": "name",
          "type": "bytes32"
        },
        {
          "name": "voteCount",
          "type": "uint256"
        }
      ],
      "payable": false,
      "stateMutability": "view",
      "type": "function"
    },
    {
      "constant": true,
      "inputs": [],
      "name": "chairperson",
      "outputs": [
        {
          "name": "",
          "type": "address"
        }
      ],
      "payable": false,
      "stateMutability": "view",
      "type": "function"
    },
    {
      "constant": true,
      "inputs": [],
      "name": "timeToExpiry",
      "outputs": [
        {
          "name": "",
          "type": "uint256"
        }
      ],
      "payable": false,
      "stateMutability": "view",
      "type": "function"
    },
    {
      "constant": true,
      "inputs": [],
      "name": "startTime",
      "outputs": [
        {
          "name": "",
          "type": "uint256"
        }
      ],
      "payable": false,
      "stateMutability": "view",
      "type": "function"
    },
    {
      "constant": true,
      "inputs": [
        {
          "name": "",
          "type": "address"
        }
      ],
      "name": "voters",
      "outputs": [
        {
          "name": "weight",
          "type": "uint256"
        },
        {
          "name": "voted",
          "type": "bool"
        },
        {
          "name": "delegate",
          "type": "address"
        },
        {
          "name": "vote",
          "type": "uint256"
        }
      ],
      "payable": false,
      "stateMutability": "view",
      "type": "function"
    },
    {
      "constant": true,
      "inputs": [],
      "name": "timeNow",
      "outputs": [
        {
          "name": "",
          "type": "uint256"
        }
      ],
      "payable": false,
      "stateMutability": "view",
      "type": "function"
    },
    {
      "constant": false,
      "inputs": [
        {
          "name": "proposalNames",
          "type": "bytes32[]"
        },
        {
          "name": "_timeToExpiry",
          "type": "uint256"
        }
      ],
      "name": "Ballot_box",
      "outputs": [],
      "payable": true,
      "stateMutability": "payable",
      "type": "function"
    },
    {
      "constant": true,
      "inputs": [],
      "name": "getProposalsName",
      "outputs": [
        {
          "name": "nameCandi_",
          "type": "bytes32[]"
        }
      ],
      "payable": false,
      "stateMutability": "view",
      "type": "function"
    },
    {
      "constant": true,
      "inputs": [],
      "name": "getProposalsCounts",
      "outputs": [
        {
          "name": "",
          "type": "uint256"
        }
      ],
      "payable": false,
      "stateMutability": "view",
      "type": "function"
    },
    {
      "constant": false,
      "inputs": [
        {
          "name": "voter",
          "type": "address"
        }
      ],
      "name": "giveRightToVote",
      "outputs": [],
      "payable": true,
      "stateMutability": "payable",
      "type": "function"
    },
    {
      "constant": false,
      "inputs": [
        {
          "name": "proposal",
          "type": "uint256"
        }
      ],
      "name": "vote",
      "outputs": [],
      "payable": true,
      "stateMutability": "payable",
      "type": "function"
    },
    {
      "constant": true,
      "inputs": [],
      "name": "winningProposal",
      "outputs": [
        {
          "name": "winningProposal_",
          "type": "uint256"
        }
      ],
      "payable": false,
      "stateMutability": "view",
      "type": "function"
    },
    {
      "constant": true,
      "inputs": [],
      "name": "winnerName",
      "outputs": [
        {
          "name": "",
          "type": "string"
        }
      ],
      "payable": false,
      "stateMutability": "view",
      "type": "function"
    },
    {
      "constant": false,
      "inputs": [],
      "name": "getNow",
      "outputs": [
        {
          "name": "",
          "type": "uint256"
        }
      ],
      "payable": true,
      "stateMutability": "payable",
      "type": "function"
    }
  ],
  "bytecode": "0x608060405234801561001057600080fd5b50610d18806100206000396000f3006080604052600436106100d0576000357c0100000000000000000000000000000000000000000000000000000000900463ffffffff1680630121b93f146100d5578063013cf08b146100f55780632352ee60146101455780632e4176cf146101705780633e84531c146101c757806350c90b0f146101f2578063609ff1bd1461025e57806371a328901461028957806378e97925146102ec5780639e7b8d6114610317578063a3ec138d1461034d578063bbe4fd50146103e9578063d95660be14610407578063e2ba53f014610432575b600080fd5b6100f3600480360381019080803590602001909291905050506104c2565b005b34801561010157600080fd5b50610120600480360381019080803590602001909291905050506105da565b6040518083600019166000191681526020018281526020019250505060405180910390f35b34801561015157600080fd5b5061015a61060d565b6040518082815260200191505060405180910390f35b34801561017c57600080fd5b5061018561061a565b604051808273ffffffffffffffffffffffffffffffffffffffff1673ffffffffffffffffffffffffffffffffffffffff16815260200191505060405180910390f35b3480156101d357600080fd5b506101dc61063f565b6040518082815260200191505060405180910390f35b3480156101fe57600080fd5b50610207610645565b6040518080602001828103825283818151815260200191508051906020019060200280838360005b8381101561024a57808201518184015260208101905061022f565b505050509050019250505060405180910390f35b34801561026a57600080fd5b506102736106a1565b6040518082815260200191505060405180910390f35b6102ea600480360381019080803590602001908201803590602001908080602002602001604051908101604052809392919081815260200183836020028082843782019150505050505091929192908035906020019092919050505061071c565b005b3480156102f857600080fd5b50610301610887565b6040518082815260200191505060405180910390f35b61034b600480360381019080803573ffffffffffffffffffffffffffffffffffffffff16906020019092919050505061088d565b005b34801561035957600080fd5b5061038e600480360381019080803573ffffffffffffffffffffffffffffffffffffffff1690602001909291905050506109da565b60405180858152602001841515151581526020018373ffffffffffffffffffffffffffffffffffffffff1673ffffffffffffffffffffffffffffffffffffffff16815260200182815260200194505050505060405180910390f35b6103f1610a37565b6040518082815260200191505060405180910390f35b34801561041357600080fd5b5061041c610a48565b6040518082815260200191505060405180910390f35b34801561043e57600080fd5b50610447610a4e565b6040518080602001828103825283818151815260200191508051906020019080838360005b8381101561048757808201518184015260208101905061046c565b50505050905090810190601f1680156104b45780820380516001836020036101000a031916815260200191505b509250505060405180910390f35b6000600460003373ffffffffffffffffffffffffffffffffffffffff1673ffffffffffffffffffffffffffffffffffffffff16815260200190815260200160002090508060010160009054906101000a900460ff1615801561056657506001600460003373ffffffffffffffffffffffffffffffffffffffff1673ffffffffffffffffffffffffffffffffffffffff16815260200190815260200160002060000154145b8015610573575060015442105b151561057e57600080fd5b60018160010160006101000a81548160ff02191690831515021790555081816002018190555080600001546005838154811015156105b857fe5b9060005260206000209060020201600101600082825401925050819055505050565b6005818154811015156105e957fe5b90600052602060002090600202016000915090508060000154908060010154905082565b6000600580549050905090565b6000809054906101000a900473ffffffffffffffffffffffffffffffffffffffff1681565b60015481565b6060600680548060200260200160405190810160405280929190818152602001828054801561069757602002820191906000526020600020905b8154600019168152602001906001019080831161067f575b5050505050905090565b6000806000809150600090505b60058054905081101561071757816005828154811015156106cb57fe5b906000526020600020906002020160010154111561070a576005818154811015156106f257fe5b90600052602060002090600202016001015491508092505b80806001019150506106ae565b505090565b6000336000806101000a81548173ffffffffffffffffffffffffffffffffffffffff021916908373ffffffffffffffffffffffffffffffffffffffff1602179055506001600460008060009054906101000a900473ffffffffffffffffffffffffffffffffffffffff1673ffffffffffffffffffffffffffffffffffffffff1673ffffffffffffffffffffffffffffffffffffffff16815260200190815260200160002060000181905550816001819055504260028190555082600690805190602001906107eb929190610c74565b50600090505b82518110156108825760056040805190810160405280858481518110151561081557fe5b90602001906020020151600019168152602001600081525090806001815401808255809150509060018203906000526020600020906002020160009091929091909150600082015181600001906000191690556020820151816001015550505080806001019150506107f1565b505050565b60025481565b6000809054906101000a900473ffffffffffffffffffffffffffffffffffffffff1673ffffffffffffffffffffffffffffffffffffffff163373ffffffffffffffffffffffffffffffffffffffff161480156109365750600460008273ffffffffffffffffffffffffffffffffffffffff1673ffffffffffffffffffffffffffffffffffffffff16815260200190815260200160002060010160009054906101000a900460ff16155b801561098457506000600460008373ffffffffffffffffffffffffffffffffffffffff1673ffffffffffffffffffffffffffffffffffffffff16815260200190815260200160002060000154145b151561098f57600080fd5b6001600460008373ffffffffffffffffffffffffffffffffffffffff1673ffffffffffffffffffffffffffffffffffffffff1681526020019081526020016000206000018190555050565b60046020528060005260406000206000915090508060000154908060010160009054906101000a900460ff16908060010160019054906101000a900473ffffffffffffffffffffffffffffffffffffffff16908060020154905084565b600042600381905550600354905090565b60035481565b606080600080600080606060206040519080825280601f01601f191660200182016040528015610a8d5781602001602082028038833980820191505090505b5095506005610a9a6106a1565b815481101515610aa657fe5b906000526020600020906002020160000154945060009350600092505b6020831015610b81578260080260020a856001900402600102915060007f010000000000000000000000000000000000000000000000000000000000000002827effffffffffffffffffffffffffffffffffffffffffffffffffffffffffffff1916141515610b7457818685815181101515610b3b57fe5b9060200101907effffffffffffffffffffffffffffffffffffffffffffffffffffffffffffff1916908160001a90535083806001019450505b8280600101935050610ac3565b836040519080825280601f01601f191660200182016040528015610bb45781602001602082028038833980820191505090505b509050600092505b83831015610c68578583815181101515610bd257fe5b9060200101517f010000000000000000000000000000000000000000000000000000000000000090047f0100000000000000000000000000000000000000000000000000000000000000028184815181101515610c2b57fe5b9060200101907effffffffffffffffffffffffffffffffffffffffffffffffffffffffffffff1916908160001a9053508280600101935050610bbc565b80965050505050505090565b828054828255906000526020600020908101928215610cb6579160200282015b82811115610cb5578251829060001916905591602001919060010190610c94565b5b509050610cc39190610cc7565b5090565b610ce991905b80821115610ce5576000816000905550600101610ccd565b5090565b905600a165627a7a723058209abfad05801aea30e840f148631e2e1bcd2e6b64faf50ae79afea1dad72304900029",
  "source": "    pragma solidity ^0.4.16;\r\n\r\n/// @title Voting with delegation.\r\ncontract Ballot {\r\n    // This declares a new complex type which will\r\n    // be used for variables later.\r\n    // It will represent a single voter.\r\n    struct Voter {\r\n        uint weight; // weight is accumulated by delegation\r\n        bool voted;  // if true, that person already voted\r\n        address delegate; // person delegated to\r\n        uint vote;   // index of the voted proposal\r\n    }\r\n\r\n    // This is a type for a single proposal.\r\n    struct Proposal {\r\n        bytes32 name;   // short name (up to 32 bytes)\r\n        uint voteCount; // number of accumulated votes\r\n    }\r\n\r\n    address public chairperson;\r\n    uint public timeToExpiry;\r\n    uint public startTime;\r\n    uint public timeNow;\r\n\r\n    // This declares a state variable that\r\n    // stores a `Voter` struct for each possible address.\r\n    mapping(address => Voter) public voters;\r\n\r\n    // A dynamically-sized array of `Proposal` structs.\r\n    Proposal[] public proposals;\r\n    bytes32[] Candidate;\r\n\r\n    /// Create a new ballot to choose one of `proposalNames`.\r\n    function Ballot_box(bytes32[] proposalNames ,uint _timeToExpiry) public payable{\r\n        chairperson = msg.sender;\r\n        voters[chairperson].weight = 1;\r\n        timeToExpiry = _timeToExpiry;\r\n        startTime = now;\r\n        Candidate = proposalNames;\r\n\r\n        // For each of the provided proposal names,\r\n        // create a new proposal object and add it\r\n        // to the end of the array.\r\n        for (uint i = 0; i < proposalNames.length; i++) {\r\n            // `Proposal({...})` creates a temporary\r\n            // Proposal object and `proposals.push(...)`\r\n            // appends it to the end of `proposals`.\r\n            proposals.push(Proposal({\r\n                name: proposalNames[i],\r\n                voteCount: 0\r\n            }));\r\n        }\r\n    }\r\n    \r\n    function getProposalsName() public constant returns (bytes32[] nameCandi_) {\r\n        nameCandi_ = Candidate;\r\n    }\r\n\r\n    // function getProposalsName(bytes32[] Candidate) public returns (bytes32[]) {\r\n    //     bytes memory bytesString = new bytes(Candidate.length * 32);\r\n    //     uint urlLength;\r\n    //     for (uint i=0; i<Candidate.length; i++) {\r\n    //         for (uint j=0; j<32; j++) {\r\n    //             byte char = byte(bytes32(uint(Candidate[i]) * 2 ** (8 * j)));\r\n    //             if (char != 0) {\r\n    //                 bytesString[urlLength] = char;\r\n    //                 urlLength += 1;\r\n    //             }\r\n    //         }\r\n    //     }\r\n    //     bytes32[] bytesStringTrimmed;\r\n    //     for (i=0; i<urlLength; i++) {\r\n    //         bytesStringTrimmed[i] = bytesString[i];\r\n    //     }\r\n    //     return bytesStringTrimmed;\r\n    // }   \r\n\r\n    function getProposalsCounts() public constant returns (uint) {\r\n        return (proposals.length);\r\n    }   \r\n\r\n\r\n    // Give `voter` the right to vote on this ballot.\r\n    // May only be called by `chairperson`.\r\n    function giveRightToVote(address voter) public payable{\r\n        // If the argument of `require` evaluates to `false`,\r\n        // it terminates and reverts all changes to\r\n        // the state and to Ether balances. It is often\r\n        // a good idea to use this if functions are\r\n        // called incorrectly. But watch out, this\r\n        // will currently also consume all provided gas\r\n        // (this is planned to change in the future).\r\n        require(\r\n            (msg.sender == chairperson) &&\r\n            !voters[voter].voted &&\r\n            (voters[voter].weight == 0)\r\n        );\r\n        voters[voter].weight = 1;\r\n    }\r\n\r\n    // /// Delegate your vote to the voter `to`.\r\n    // function delegate(address to) public {\r\n    //     // assigns reference\r\n    //     Voter storage sender = voters[msg.sender];\r\n    //     require(!sender.voted);\r\n\r\n    //     // Self-delegation is not allowed.\r\n    //     require(to != msg.sender);\r\n        \r\n    //     // Forward the delegation as long as\r\n    //     // `to` also delegated.\r\n    //     // In general, such loops are very dangerous,\r\n    //     // because if they run too long, they might\r\n    //     // need more gas than is available in a block.\r\n    //     // In this case, the delegation will not be executed,\r\n    //     // but in other situations, such loops might\r\n    //     // cause a contract to get \"stuck\" completely.\r\n    //     while (voters[to].delegate != address(0)) {\r\n    //         to = voters[to].delegate;\r\n\r\n    //         // We found a loop in the delegation, not allowed.\r\n    //         require(to != msg.sender);\r\n    //     }\r\n\r\n    //     // Since `sender` is a reference, this\r\n    //     // modifies `voters[msg.sender].voted`\r\n    //     sender.voted = true;\r\n    //     sender.delegate = to;\r\n    //     Voter storage delegate_ = voters[to];\r\n    //     if (delegate_.voted) {\r\n    //         // If the delegate already voted,\r\n    //         // directly add to the number of votes\r\n    //         proposals[delegate_.vote].voteCount += sender.weight;\r\n    //     } else {\r\n    //         // If the delegate did not vote yet,\r\n    //         // add to her weight.\r\n    //         delegate_.weight += sender.weight;\r\n    //     }\r\n    // }\r\n\r\n    /// Give your vote (including votes delegated to you)\r\n    /// to proposal `proposals[proposal].name`.\r\n    function vote(uint proposal) public payable{\r\n        Voter storage sender = voters[msg.sender];\r\n        require((!sender.voted) &&\r\n            (voters[msg.sender].weight == 1) &&\r\n            (now < timeToExpiry));\r\n        sender.voted = true;\r\n        sender.vote = proposal;\r\n\r\n        // If `proposal` is out of the range of the array,\r\n        // this will throw automatically and revert all\r\n        // changes.\r\n        proposals[proposal].voteCount += sender.weight;\r\n    }\r\n\r\n    /// @dev Computes the winning proposal taking all\r\n    /// previous votes into account.\r\n    function winningProposal() public view\r\n            returns (uint winningProposal_)\r\n    {\r\n        uint winningVoteCount = 0;\r\n        for (uint p = 0; p < proposals.length; p++) {\r\n            if (proposals[p].voteCount > winningVoteCount) {\r\n                winningVoteCount = proposals[p].voteCount;\r\n                winningProposal_ = p;\r\n            }\r\n        }\r\n    }\r\n    \r\n    function winnerName() public view  returns (string) {\r\n            bytes memory bytesString = new bytes(32);\r\n            bytes32 x = proposals[winningProposal()].name;\r\n            uint charCount = 0;\r\n        for (uint j = 0; j < 32; j++) {\r\n            byte char = byte(bytes32(uint(x) * 2 ** (8 * j)));\r\n                if (char != 0) {\r\n                    bytesString[charCount] = char;\r\n                    charCount++;\r\n                }\r\n            }\r\n        bytes memory winnerName_ = new bytes(charCount);\r\n        for (j = 0; j < charCount; j++) {\r\n            winnerName_[j] = bytesString[j];\r\n        }\r\n    return string(winnerName_);\r\n\r\n}\r\n    function getNow() public payable returns (uint){\r\n        timeNow = now;\r\n        return timeNow;\r\n    }\r\n    \r\n    \r\n\r\n    // Calls winningProposal() function to get the index\r\n    // of the winner contained in the proposals array and then\r\n    // returns the name of the winner\r\n    // function winnerName() public view \r\n    //        returns (bytes32 winnerName_)\r\n    //{\r\n    //    winnerName_ = proposals[winningProposal()].name;\r\n    //}\r\n\r\n}",
  "sourcePath": "/Users/boom/Desktop/Electronic_vote/contracts/ballot.sol",
  "compiler": {
    "name": "solc",
    "version": "0.4.23+commit.124ca40d.Emscripten.clang"
  },
  "schemaVersion": "2.0.0",
  "updatedAt": "2018-05-13T18:59:08.006Z"
}