{
  "contractName": "Ballot",
  "abi": [
    {
      "constant": true,
      "inputs": [
        {
          "name": "",
          "type": "uint256"
        }
      ],
      "name": "proposals",
      "outputs": [
        {
          "name": "name",
          "type": "bytes32"
        },
        {
          "name": "voteCount",
          "type": "uint256"
        }
      ],
      "payable": false,
      "stateMutability": "view",
      "type": "function"
    },
    {
      "constant": true,
      "inputs": [],
      "name": "chairperson",
      "outputs": [
        {
          "name": "",
          "type": "address"
        }
      ],
      "payable": false,
      "stateMutability": "view",
      "type": "function"
    },
    {
      "constant": true,
      "inputs": [],
      "name": "timeToExpiry",
      "outputs": [
        {
          "name": "",
          "type": "uint256"
        }
      ],
      "payable": false,
      "stateMutability": "view",
      "type": "function"
    },
    {
      "constant": true,
      "inputs": [],
      "name": "startTime",
      "outputs": [
        {
          "name": "",
          "type": "uint256"
        }
      ],
      "payable": false,
      "stateMutability": "view",
      "type": "function"
    },
    {
      "constant": true,
      "inputs": [
        {
          "name": "",
          "type": "address"
        }
      ],
      "name": "voters",
      "outputs": [
        {
          "name": "weight",
          "type": "uint256"
        },
        {
          "name": "voted",
          "type": "bool"
        },
        {
          "name": "delegate",
          "type": "address"
        },
        {
          "name": "vote",
          "type": "uint256"
        }
      ],
      "payable": false,
      "stateMutability": "view",
      "type": "function"
    },
    {
      "constant": true,
      "inputs": [],
      "name": "voteCountNow",
      "outputs": [
        {
          "name": "",
          "type": "uint256"
        }
      ],
      "payable": false,
      "stateMutability": "view",
      "type": "function"
    },
    {
      "constant": true,
      "inputs": [],
      "name": "timeNow",
      "outputs": [
        {
          "name": "",
          "type": "uint256"
        }
      ],
      "payable": false,
      "stateMutability": "view",
      "type": "function"
    },
    {
      "constant": true,
      "inputs": [
        {
          "name": "",
          "type": "uint256"
        }
      ],
      "name": "scoreAll",
      "outputs": [
        {
          "name": "",
          "type": "uint256"
        }
      ],
      "payable": false,
      "stateMutability": "view",
      "type": "function"
    },
    {
      "constant": false,
      "inputs": [
        {
          "name": "proposalNames",
          "type": "bytes32[]"
        }
      ],
      "name": "Ballot_box",
      "outputs": [],
      "payable": true,
      "stateMutability": "payable",
      "type": "function"
    },
    {
      "constant": true,
      "inputs": [],
      "name": "getProposalsName",
      "outputs": [
        {
          "name": "nameCandi_",
          "type": "bytes32[]"
        }
      ],
      "payable": false,
      "stateMutability": "view",
      "type": "function"
    },
    {
      "constant": true,
      "inputs": [],
      "name": "getProposalsCounts",
      "outputs": [
        {
          "name": "",
          "type": "uint256"
        }
      ],
      "payable": false,
      "stateMutability": "view",
      "type": "function"
    },
    {
      "constant": false,
      "inputs": [
        {
          "name": "voter",
          "type": "address"
        }
      ],
      "name": "giveRightToVote",
      "outputs": [],
      "payable": true,
      "stateMutability": "payable",
      "type": "function"
    },
    {
      "constant": false,
      "inputs": [
        {
          "name": "proposal",
          "type": "uint256"
        }
      ],
      "name": "vote",
      "outputs": [],
      "payable": true,
      "stateMutability": "payable",
      "type": "function"
    },
    {
      "constant": true,
      "inputs": [],
      "name": "getVoteCountNow",
      "outputs": [
        {
          "name": "",
          "type": "uint256"
        }
      ],
      "payable": false,
      "stateMutability": "view",
      "type": "function"
    },
    {
      "constant": true,
      "inputs": [],
      "name": "winningProposal",
      "outputs": [
        {
          "name": "winningProposal_",
          "type": "uint256"
        }
      ],
      "payable": false,
      "stateMutability": "view",
      "type": "function"
    },
    {
      "constant": false,
      "inputs": [],
      "name": "scoreProposal",
      "outputs": [
        {
          "name": "scoreProposal_",
          "type": "uint256[]"
        }
      ],
      "payable": true,
      "stateMutability": "payable",
      "type": "function"
    },
    {
      "constant": true,
      "inputs": [],
      "name": "winnerName",
      "outputs": [
        {
          "name": "",
          "type": "string"
        }
      ],
      "payable": false,
      "stateMutability": "view",
      "type": "function"
    },
    {
      "constant": false,
      "inputs": [],
      "name": "getNow",
      "outputs": [
        {
          "name": "",
          "type": "uint256"
        }
      ],
      "payable": true,
      "stateMutability": "payable",
      "type": "function"
    }
  ],
  "bytecode": "0x608060405234801561001057600080fd5b50610ef3806100206000396000f3006080604052600436106100fc576000357c0100000000000000000000000000000000000000000000000000000000900463ffffffff1680630121b93f14610101578063013cf08b14610121578063094b4bc2146101715780632352ee60146101ca5780632e4176cf146101f55780633e84531c1461024c57806350c90b0f14610277578063609ff1bd146102e357806378e979251461030e57806388aa62d0146103395780639e4c6824146103985780639e7b8d61146103c3578063a3ec138d146103f9578063af88b11414610495578063bbe4fd50146104c0578063d95660be146104de578063e2ba53f014610509578063fc14a2d814610599575b600080fd5b61011f600480360381019080803590602001909291905050506105da565b005b34801561012d57600080fd5b5061014c600480360381019080803590602001909291905050506106f3565b6040518083600019166000191681526020018281526020019250505060405180910390f35b6101c860048036038101908080359060200190820180359060200190808060200260200160405190810160405280939291908181526020018383602002808284378201915050505050509192919290505050610726565b005b3480156101d657600080fd5b506101df610882565b6040518082815260200191505060405180910390f35b34801561020157600080fd5b5061020a61088f565b604051808273ffffffffffffffffffffffffffffffffffffffff1673ffffffffffffffffffffffffffffffffffffffff16815260200191505060405180910390f35b34801561025857600080fd5b506102616108b4565b6040518082815260200191505060405180910390f35b34801561028357600080fd5b5061028c6108ba565b6040518080602001828103825283818151815260200191508051906020019060200280838360005b838110156102cf5780820151818401526020810190506102b4565b505050509050019250505060405180910390f35b3480156102ef57600080fd5b506102f8610916565b6040518082815260200191505060405180910390f35b34801561031a57600080fd5b50610323610991565b6040518082815260200191505060405180910390f35b610341610997565b6040518080602001828103825283818151815260200191508051906020019060200280838360005b83811015610384578082015181840152602081019050610369565b505050509050019250505060405180910390f35b3480156103a457600080fd5b506103ad610a35565b6040518082815260200191505060405180910390f35b6103f7600480360381019080803573ffffffffffffffffffffffffffffffffffffffff169060200190929190505050610a3f565b005b34801561040557600080fd5b5061043a600480360381019080803573ffffffffffffffffffffffffffffffffffffffff169060200190929190505050610b8c565b60405180858152602001841515151581526020018373ffffffffffffffffffffffffffffffffffffffff1673ffffffffffffffffffffffffffffffffffffffff16815260200182815260200194505050505060405180910390f35b3480156104a157600080fd5b506104aa610be9565b6040518082815260200191505060405180910390f35b6104c8610bef565b6040518082815260200191505060405180910390f35b3480156104ea57600080fd5b506104f3610c00565b6040518082815260200191505060405180910390f35b34801561051557600080fd5b5061051e610c06565b6040518080602001828103825283818151815260200191508051906020019080838360005b8381101561055e578082015181840152602081019050610543565b50505050905090810190601f16801561058b5780820380516001836020036101000a031916815260200191505b509250505060405180910390f35b3480156105a557600080fd5b506105c460048036038101908080359060200190929190505050610e2c565b6040518082815260200191505060405180910390f35b6000600660003373ffffffffffffffffffffffffffffffffffffffff1673ffffffffffffffffffffffffffffffffffffffff16815260200190815260200160002090508060010160009054906101000a900460ff1615801561067e57506001600660003373ffffffffffffffffffffffffffffffffffffffff1673ffffffffffffffffffffffffffffffffffffffff16815260200190815260200160002060000154145b151561068957600080fd5b60018160010160006101000a81548160ff021916908315150217905550818160020181905550600160046000828254019250508190555060016007838154811015156106d157fe5b9060005260206000209060020201600101600082825401925050819055505050565b60078181548110151561070257fe5b90600052602060002090600202016000915090508060000154908060010154905082565b6000336000806101000a81548173ffffffffffffffffffffffffffffffffffffffff021916908373ffffffffffffffffffffffffffffffffffffffff1602179055506001600660008060009054906101000a900473ffffffffffffffffffffffffffffffffffffffff1673ffffffffffffffffffffffffffffffffffffffff1673ffffffffffffffffffffffffffffffffffffffff1681526020019081526020016000206000018190555081600890805190602001906107e7929190610e4f565b50600090505b815181101561087e5760076040805190810160405280848481518110151561081157fe5b90602001906020020151600019168152602001600081525090806001815401808255809150509060018203906000526020600020906002020160009091929091909150600082015181600001906000191690556020820151816001015550505080806001019150506107ed565b5050565b6000600780549050905090565b6000809054906101000a900473ffffffffffffffffffffffffffffffffffffffff1681565b60015481565b6060600880548060200260200160405190810160405280929190818152602001828054801561090c57602002820191906000526020600020905b815460001916815260200190600101908083116108f4575b5050505050905090565b6000806000809150600090505b60078054905081101561098c578160078281548110151561094057fe5b906000526020600020906002020160010154111561097f5760078181548110151561096757fe5b90600052602060002090600202016001015491508092505b8080600101915050610923565b505090565b60025481565b606060006007805490506040519080825280602002602001820160405280156109cf5781602001602082028038833980820191505090505b509150600090505b600780549050811015610a2e576007818154811015156109f357fe5b9060005260206000209060020201600101548282815181101515610a1357fe5b906020019060200201818152505080806001019150506109d7565b8191505090565b6000600454905090565b6000809054906101000a900473ffffffffffffffffffffffffffffffffffffffff1673ffffffffffffffffffffffffffffffffffffffff163373ffffffffffffffffffffffffffffffffffffffff16148015610ae85750600660008273ffffffffffffffffffffffffffffffffffffffff1673ffffffffffffffffffffffffffffffffffffffff16815260200190815260200160002060010160009054906101000a900460ff16155b8015610b3657506000600660008373ffffffffffffffffffffffffffffffffffffffff1673ffffffffffffffffffffffffffffffffffffffff16815260200190815260200160002060000154145b1515610b4157600080fd5b6001600660008373ffffffffffffffffffffffffffffffffffffffff1673ffffffffffffffffffffffffffffffffffffffff1681526020019081526020016000206000018190555050565b60066020528060005260406000206000915090508060000154908060010160009054906101000a900460ff16908060010160019054906101000a900473ffffffffffffffffffffffffffffffffffffffff16908060020154905084565b60045481565b600042600381905550600354905090565b60035481565b606080600080600080606060206040519080825280601f01601f191660200182016040528015610c455781602001602082028038833980820191505090505b5095506007610c52610916565b815481101515610c5e57fe5b906000526020600020906002020160000154945060009350600092505b6020831015610d39578260080260020a856001900402600102915060007f010000000000000000000000000000000000000000000000000000000000000002827effffffffffffffffffffffffffffffffffffffffffffffffffffffffffffff1916141515610d2c57818685815181101515610cf357fe5b9060200101907effffffffffffffffffffffffffffffffffffffffffffffffffffffffffffff1916908160001a90535083806001019450505b8280600101935050610c7b565b836040519080825280601f01601f191660200182016040528015610d6c5781602001602082028038833980820191505090505b509050600092505b83831015610e20578583815181101515610d8a57fe5b9060200101517f010000000000000000000000000000000000000000000000000000000000000090047f0100000000000000000000000000000000000000000000000000000000000000028184815181101515610de357fe5b9060200101907effffffffffffffffffffffffffffffffffffffffffffffffffffffffffffff1916908160001a9053508280600101935050610d74565b80965050505050505090565b600581815481101515610e3b57fe5b906000526020600020016000915090505481565b828054828255906000526020600020908101928215610e91579160200282015b82811115610e90578251829060001916905591602001919060010190610e6f565b5b509050610e9e9190610ea2565b5090565b610ec491905b80821115610ec0576000816000905550600101610ea8565b5090565b905600a165627a7a72305820b3fc8daad12f632b29121860f9c997d812dffb5fd5b398ea15a47c2038de352f0029",
  "source": "pragma solidity ^0.4.16;\r\n\r\n/// @title Voting with delegation.\r\ncontract Ballot {\r\n    // This declares a new complex type which will\r\n    // be used for variables later.\r\n    // It will represent a single voter.\r\n    struct Voter {\r\n        uint weight; // weight is accumulated by delegation\r\n        bool voted;  // if true, that person already voted\r\n        address delegate; // person delegated to\r\n        uint vote;   // index of the voted proposal\r\n    }\r\n\r\n    // This is a type for a single proposal.\r\n    struct Proposal {\r\n        bytes32 name;   // short name (up to 32 bytes)\r\n        uint voteCount; // number of accumulated votes\r\n    }\r\n\r\n    address public chairperson;\r\n    uint public timeToExpiry;\r\n    uint public startTime;\r\n    uint public timeNow;\r\n    uint public voteCountNow;\r\n    uint[] public scoreAll;\r\n\r\n    // This declares a state variable that\r\n    // stores a `Voter` struct for each possible address.\r\n    mapping(address => Voter) public voters;\r\n\r\n    // A dynamically-sized array of `Proposal` structs.\r\n    Proposal[] public proposals;\r\n    bytes32[] Candidate;\r\n\r\n    /// Create a new ballot to choose one of `proposalNames`.\r\n    function Ballot_box(bytes32[] proposalNames) public payable{\r\n        chairperson = msg.sender;\r\n        voters[chairperson].weight = 1;\r\n        // timeToExpiry = _timeToExpiry;\r\n        // startTime = _startTime;\r\n        Candidate = proposalNames;\r\n\r\n        // For each of the provided proposal names,\r\n        // create a new proposal object and add it\r\n        // to the end of the array.\r\n        for (uint i = 0; i < proposalNames.length; i++) {\r\n            // `Proposal({...})` creates a temporary\r\n            // Proposal object and `proposals.push(...)`\r\n            // appends it to the end of `proposals`.\r\n            proposals.push(Proposal({\r\n                name: proposalNames[i],\r\n                voteCount: 0\r\n            }));\r\n        }\r\n    }\r\n    \r\n    function getProposalsName() public constant returns (bytes32[] nameCandi_) {\r\n        nameCandi_ = Candidate;\r\n    }\r\n\r\n    // function getProposalsName(bytes32[] Candidate) public returns (bytes32[]) {\r\n    //     bytes memory bytesString = new bytes(Candidate.length * 32);\r\n    //     uint urlLength;\r\n    //     for (uint i=0; i<Candidate.length; i++) {\r\n    //         for (uint j=0; j<32; j++) {\r\n    //             byte char = byte(bytes32(uint(Candidate[i]) * 2 ** (8 * j)));\r\n    //             if (char != 0) {\r\n    //                 bytesString[urlLength] = char;\r\n    //                 urlLength += 1;\r\n    //             }\r\n    //         }\r\n    //     }\r\n    //     bytes32[] bytesStringTrimmed;\r\n    //     for (i=0; i<urlLength; i++) {\r\n    //         bytesStringTrimmed[i] = bytesString[i];\r\n    //     }\r\n    //     return bytesStringTrimmed;\r\n    // }   \r\n\r\n    function getProposalsCounts() public constant returns (uint) {\r\n        return (proposals.length);\r\n    }   \r\n\r\n\r\n    // Give `voter` the right to vote on this ballot.\r\n    // May only be called by `chairperson`.\r\n    function giveRightToVote(address voter) public payable{\r\n        // If the argument of `require` evaluates to `false`,\r\n        // it terminates and reverts all changes to\r\n        // the state and to Ether balances. It is often\r\n        // a good idea to use this if functions are\r\n        // called incorrectly. But watch out, this\r\n        // will currently also consume all provided gas\r\n        // (this is planned to change in the future).\r\n        require(\r\n            (msg.sender == chairperson) &&\r\n            !voters[voter].voted &&\r\n            (voters[voter].weight == 0)\r\n        );\r\n        voters[voter].weight = 1;\r\n    }\r\n\r\n    /// Give your vote (including votes delegated to you)\r\n    /// to proposal `proposals[proposal].name`.\r\n    function vote(uint proposal) public payable{\r\n        Voter storage sender = voters[msg.sender];\r\n        require((!sender.voted) &&\r\n            (voters[msg.sender].weight == 1));\r\n            // (now < timeToExpiry) &&\r\n            // (now > startTime));\r\n        sender.voted = true;\r\n        sender.vote = proposal;\r\n\r\n        // If `proposal` is out of the range of the array,\r\n        // this will throw automatically and revert all\r\n        // changes.\r\n        voteCountNow += 1;\r\n        proposals[proposal].voteCount += 1;\r\n    }\r\n\r\n    function getVoteCountNow() public constant returns (uint) {\r\n        return voteCountNow;\r\n    }\r\n\r\n    /// @dev Computes the winning proposal taking all\r\n    /// previous votes into account.\r\n    function winningProposal() public view\r\n            returns (uint winningProposal_)\r\n    {\r\n        uint winningVoteCount = 0;\r\n        for (uint p = 0; p < proposals.length; p++) {\r\n            if (proposals[p].voteCount > winningVoteCount) {\r\n                winningVoteCount = proposals[p].voteCount;\r\n                winningProposal_ = p;\r\n            }\r\n        }\r\n    }\r\n\r\n    function scoreProposal() public payable returns(uint[] scoreProposal_) {\r\n        scoreProposal_ = new uint[](proposals.length);\r\n        for (uint i = 0; i < proposals.length; i++) {\r\n            scoreProposal_[i] = proposals[i].voteCount;\r\n        }\r\n        return scoreProposal_;\r\n    }\r\n    \r\n    function winnerName() public view  returns (string) {\r\n            bytes memory bytesString = new bytes(32);\r\n            bytes32 x = proposals[winningProposal()].name;\r\n            uint charCount = 0;\r\n        for (uint j = 0; j < 32; j++) {\r\n            byte char = byte(bytes32(uint(x) * 2 ** (8 * j)));\r\n                if (char != 0) {\r\n                    bytesString[charCount] = char;\r\n                    charCount++;\r\n                }\r\n            }\r\n        bytes memory winnerName_ = new bytes(charCount);\r\n        for (j = 0; j < charCount; j++) {\r\n            winnerName_[j] = bytesString[j];\r\n        }\r\n    return string(winnerName_);\r\n\r\n}\r\n    function getNow() public payable returns (uint){\r\n        timeNow = now;\r\n        return timeNow;\r\n    }\r\n    \r\n    \r\n\r\n    // Calls winningProposal() function to get the index\r\n    // of the winner contained in the proposals array and then\r\n    // returns the name of the winner\r\n    // function winnerName() public view \r\n    //        returns (bytes32 winnerName_)\r\n    //{\r\n    //    winnerName_ = proposals[winningProposal()].name;\r\n    //}\r\n\r\n}",
  "sourcePath": "/Users/boom/Desktop/Electronic_vote/contracts/ballot.sol",
  "compiler": {
    "name": "solc",
    "version": "0.4.23+commit.124ca40d.Emscripten.clang"
  },
  "schemaVersion": "2.0.0",
  "updatedAt": "2018-05-19T16:11:27.784Z"
}