{
  "contractName": "Ballot",
  "abi": [
    {
      "constant": false,
      "inputs": [
        {
          "name": "proposal",
          "type": "uint256"
        }
      ],
      "name": "vote",
      "outputs": [],
      "payable": true,
      "stateMutability": "payable",
      "type": "function"
    },
    {
      "constant": true,
      "inputs": [
        {
          "name": "",
          "type": "uint256"
        }
      ],
      "name": "proposals",
      "outputs": [
        {
          "name": "name",
          "type": "bytes32"
        },
        {
          "name": "voteCount",
          "type": "uint256"
        }
      ],
      "payable": false,
      "stateMutability": "view",
      "type": "function"
    },
    {
      "constant": true,
      "inputs": [],
      "name": "chairperson",
      "outputs": [
        {
          "name": "",
          "type": "address"
        }
      ],
      "payable": false,
      "stateMutability": "view",
      "type": "function"
    },
    {
      "constant": true,
      "inputs": [],
      "name": "timeToExpiry",
      "outputs": [
        {
          "name": "",
          "type": "uint256"
        }
      ],
      "payable": false,
      "stateMutability": "view",
      "type": "function"
    },
    {
      "constant": true,
      "inputs": [],
      "name": "winningProposal",
      "outputs": [
        {
          "name": "winningProposal_",
          "type": "uint256"
        }
      ],
      "payable": false,
      "stateMutability": "view",
      "type": "function"
    },
    {
      "constant": true,
      "inputs": [],
      "name": "startTime",
      "outputs": [
        {
          "name": "",
          "type": "uint256"
        }
      ],
      "payable": false,
      "stateMutability": "view",
      "type": "function"
    },
    {
      "constant": false,
      "inputs": [
        {
          "name": "voter",
          "type": "address"
        }
      ],
      "name": "giveRightToVote",
      "outputs": [],
      "payable": true,
      "stateMutability": "payable",
      "type": "function"
    },
    {
      "constant": true,
      "inputs": [
        {
          "name": "",
          "type": "address"
        }
      ],
      "name": "voters",
      "outputs": [
        {
          "name": "weight",
          "type": "uint256"
        },
        {
          "name": "voted",
          "type": "bool"
        },
        {
          "name": "delegate",
          "type": "address"
        },
        {
          "name": "vote",
          "type": "uint256"
        }
      ],
      "payable": false,
      "stateMutability": "view",
      "type": "function"
    },
    {
      "constant": true,
      "inputs": [],
      "name": "getNow",
      "outputs": [
        {
          "name": "",
          "type": "uint256"
        }
      ],
      "payable": false,
      "stateMutability": "view",
      "type": "function"
    },
    {
      "constant": true,
      "inputs": [],
      "name": "timeNow",
      "outputs": [
        {
          "name": "",
          "type": "uint256"
        }
      ],
      "payable": false,
      "stateMutability": "view",
      "type": "function"
    },
    {
      "constant": true,
      "inputs": [],
      "name": "winnerName",
      "outputs": [
        {
          "name": "",
          "type": "string"
        }
      ],
      "payable": false,
      "stateMutability": "view",
      "type": "function"
    },
    {
      "inputs": [
        {
          "name": "proposalNames",
          "type": "bytes32[]"
        },
        {
          "name": "_timeToExpiry",
          "type": "uint256"
        }
      ],
      "payable": false,
      "stateMutability": "nonpayable",
      "type": "constructor"
    }
  ],
  "bytecode": "0x6060604052341561000f57600080fd5b604051610b9f380380610b9f833981016040528080518201919060200180519060200190919050506000336000806101000a81548173ffffffffffffffffffffffffffffffffffffffff021916908373ffffffffffffffffffffffffffffffffffffffff1602179055506001600460008060009054906101000a900473ffffffffffffffffffffffffffffffffffffffff1673ffffffffffffffffffffffffffffffffffffffff1673ffffffffffffffffffffffffffffffffffffffff168152602001908152602001600020600001819055508160018190555042600281905550600090505b82518110156101825760058054806001018281610112919061018a565b916000526020600020906002020160006040805190810160405280878681518110151561013b57fe5b9060200190602002015160001916815260200160008152509091909150600082015181600001906000191690556020820151816001015550505080806001019150506100f5565b5050506101eb565b8154818355818115116101b7576002028160020283600052602060002091820191016101b691906101bc565b5b505050565b6101e891905b808211156101e4576000808201600090556001820160009055506002016101c2565b5090565b90565b6109a5806101fa6000396000f3006060604052600436106100af576000357c0100000000000000000000000000000000000000000000000000000000900463ffffffff1680630121b93f146100b4578063013cf08b146100cc5780632e4176cf146101125780633e84531c14610167578063609ff1bd1461019057806378e97925146101b95780639e7b8d61146101e2578063a3ec138d14610210578063bbe4fd50146102a2578063d95660be146102cb578063e2ba53f0146102f4575b600080fd5b6100ca6004808035906020019091905050610382565b005b34156100d757600080fd5b6100ed600480803590602001909190505061049a565b6040518083600019166000191681526020018281526020019250505060405180910390f35b341561011d57600080fd5b6101256104cd565b604051808273ffffffffffffffffffffffffffffffffffffffff1673ffffffffffffffffffffffffffffffffffffffff16815260200191505060405180910390f35b341561017257600080fd5b61017a6104f2565b6040518082815260200191505060405180910390f35b341561019b57600080fd5b6101a36104f8565b6040518082815260200191505060405180910390f35b34156101c457600080fd5b6101cc610573565b6040518082815260200191505060405180910390f35b61020e600480803573ffffffffffffffffffffffffffffffffffffffff16906020019091905050610579565b005b341561021b57600080fd5b610247600480803573ffffffffffffffffffffffffffffffffffffffff169060200190919050506106c6565b60405180858152602001841515151581526020018373ffffffffffffffffffffffffffffffffffffffff1673ffffffffffffffffffffffffffffffffffffffff16815260200182815260200194505050505060405180910390f35b34156102ad57600080fd5b6102b5610723565b6040518082815260200191505060405180910390f35b34156102d657600080fd5b6102de610734565b6040518082815260200191505060405180910390f35b34156102ff57600080fd5b61030761073a565b6040518080602001828103825283818151815260200191508051906020019080838360005b8381101561034757808201518184015260208101905061032c565b50505050905090810190601f1680156103745780820380516001836020036101000a031916815260200191505b509250505060405180910390f35b6000600460003373ffffffffffffffffffffffffffffffffffffffff1673ffffffffffffffffffffffffffffffffffffffff16815260200190815260200160002090508060010160009054906101000a900460ff1615801561042657506001600460003373ffffffffffffffffffffffffffffffffffffffff1673ffffffffffffffffffffffffffffffffffffffff16815260200190815260200160002060000154145b8015610433575060015442105b151561043e57600080fd5b60018160010160006101000a81548160ff021916908315150217905550818160020181905550806000015460058381548110151561047857fe5b9060005260206000209060020201600101600082825401925050819055505050565b6005818154811015156104a957fe5b90600052602060002090600202016000915090508060000154908060010154905082565b6000809054906101000a900473ffffffffffffffffffffffffffffffffffffffff1681565b60015481565b6000806000809150600090505b60058054905081101561056e578160058281548110151561052257fe5b90600052602060002090600202016001015411156105615760058181548110151561054957fe5b90600052602060002090600202016001015491508092505b8080600101915050610505565b505090565b60025481565b6000809054906101000a900473ffffffffffffffffffffffffffffffffffffffff1673ffffffffffffffffffffffffffffffffffffffff163373ffffffffffffffffffffffffffffffffffffffff161480156106225750600460008273ffffffffffffffffffffffffffffffffffffffff1673ffffffffffffffffffffffffffffffffffffffff16815260200190815260200160002060010160009054906101000a900460ff16155b801561067057506000600460008373ffffffffffffffffffffffffffffffffffffffff1673ffffffffffffffffffffffffffffffffffffffff16815260200190815260200160002060000154145b151561067b57600080fd5b6001600460008373ffffffffffffffffffffffffffffffffffffffff1673ffffffffffffffffffffffffffffffffffffffff1681526020019081526020016000206000018190555050565b60046020528060005260406000206000915090508060000154908060010160009054906101000a900460ff16908060010160019054906101000a900473ffffffffffffffffffffffffffffffffffffffff16908060020154905084565b600042600381905550600354905090565b60035481565b610742610951565b61074a610965565b600080600080610758610965565b60206040518059106107675750595b9080825280601f01601f1916602001820160405250955060056107886104f8565b81548110151561079457fe5b906000526020600020906002020160000154945060009350600092505b602083101561086f578260080260020a856001900402600102915060007f010000000000000000000000000000000000000000000000000000000000000002827effffffffffffffffffffffffffffffffffffffffffffffffffffffffffffff19161415156108625781868581518110151561082957fe5b9060200101907effffffffffffffffffffffffffffffffffffffffffffffffffffffffffffff1916908160001a90535083806001019450505b82806001019350506107b1565b8360405180591061087d5750595b9080825280601f01601f19166020018201604052509050600092505b838310156109455785838151811015156108af57fe5b9060200101517f010000000000000000000000000000000000000000000000000000000000000090047f010000000000000000000000000000000000000000000000000000000000000002818481518110151561090857fe5b9060200101907effffffffffffffffffffffffffffffffffffffffffffffffffffffffffffff1916908160001a9053508280600101935050610899565b80965050505050505090565b602060405190810160405280600081525090565b6020604051908101604052806000815250905600a165627a7a723058206cedfc6a3e9fbf94ab60d3112f395b3a8dc475e18591d1c8df429f0ddafa348b0029",
  "source": "pragma solidity ^0.4.16;\n\n/// @title Voting with delegation.\ncontract Ballot {\n    // This declares a new complex type which will\n    // be used for variables later.\n    // It will represent a single voter.\n    struct Voter {\n        uint weight; // weight is accumulated by delegation\n        bool voted;  // if true, that person already voted\n        address delegate; // person delegated to\n        uint vote;   // index of the voted proposal\n    }\n\n    // This is a type for a single proposal.\n    struct Proposal {\n        bytes32 name;   // short name (up to 32 bytes)\n        uint voteCount; // number of accumulated votes\n    }\n\n    address public chairperson;\n    uint public timeToExpiry;\n    uint public startTime;\n    uint public timeNow;\n\n    // This declares a state variable that\n    // stores a `Voter` struct for each possible address.\n    mapping(address => Voter) public voters;\n\n    // A dynamically-sized array of `Proposal` structs.\n    Proposal[] public proposals;\n\n    /// Create a new ballot to choose one of `proposalNames`.\n    function Ballot(bytes32[] proposalNames ,uint _timeToExpiry) public {\n        chairperson = msg.sender;\n        voters[chairperson].weight = 1;\n        timeToExpiry = _timeToExpiry;\n        startTime = now;\n\n        // For each of the provided proposal names,\n        // create a new proposal object and add it\n        // to the end of the array.\n        for (uint i = 0; i < proposalNames.length; i++) {\n            // `Proposal({...})` creates a temporary\n            // Proposal object and `proposals.push(...)`\n            // appends it to the end of `proposals`.\n            proposals.push(Proposal({\n                name: proposalNames[i],\n                voteCount: 0\n            }));\n        }\n    }\n\n\n    // Give `voter` the right to vote on this ballot.\n    // May only be called by `chairperson`.\n    function giveRightToVote(address voter) public payable{\n        // If the argument of `require` evaluates to `false`,\n        // it terminates and reverts all changes to\n        // the state and to Ether balances. It is often\n        // a good idea to use this if functions are\n        // called incorrectly. But watch out, this\n        // will currently also consume all provided gas\n        // (this is planned to change in the future).\n        require(\n            (msg.sender == chairperson) &&\n            !voters[voter].voted &&\n            (voters[voter].weight == 0)\n        );\n        voters[voter].weight = 1;\n    }\n\n    // /// Delegate your vote to the voter `to`.\n    // function delegate(address to) public {\n    //     // assigns reference\n    //     Voter storage sender = voters[msg.sender];\n    //     require(!sender.voted);\n\n    //     // Self-delegation is not allowed.\n    //     require(to != msg.sender);\n        \n    //     // Forward the delegation as long as\n    //     // `to` also delegated.\n    //     // In general, such loops are very dangerous,\n    //     // because if they run too long, they might\n    //     // need more gas than is available in a block.\n    //     // In this case, the delegation will not be executed,\n    //     // but in other situations, such loops might\n    //     // cause a contract to get \"stuck\" completely.\n    //     while (voters[to].delegate != address(0)) {\n    //         to = voters[to].delegate;\n\n    //         // We found a loop in the delegation, not allowed.\n    //         require(to != msg.sender);\n    //     }\n\n    //     // Since `sender` is a reference, this\n    //     // modifies `voters[msg.sender].voted`\n    //     sender.voted = true;\n    //     sender.delegate = to;\n    //     Voter storage delegate_ = voters[to];\n    //     if (delegate_.voted) {\n    //         // If the delegate already voted,\n    //         // directly add to the number of votes\n    //         proposals[delegate_.vote].voteCount += sender.weight;\n    //     } else {\n    //         // If the delegate did not vote yet,\n    //         // add to her weight.\n    //         delegate_.weight += sender.weight;\n    //     }\n    // }\n\n    /// Give your vote (including votes delegated to you)\n    /// to proposal `proposals[proposal].name`.\n    function vote(uint proposal) public payable{\n        Voter storage sender = voters[msg.sender];\n        require((!sender.voted) &&\n            (voters[msg.sender].weight == 1) &&\n            (now < timeToExpiry));\n        sender.voted = true;\n        sender.vote = proposal;\n\n        // If `proposal` is out of the range of the array,\n        // this will throw automatically and revert all\n        // changes.\n        proposals[proposal].voteCount += sender.weight;\n    }\n\n    /// @dev Computes the winning proposal taking all\n    /// previous votes into account.\n    function winningProposal() public view\n            returns (uint winningProposal_)\n    {\n        uint winningVoteCount = 0;\n        for (uint p = 0; p < proposals.length; p++) {\n            if (proposals[p].voteCount > winningVoteCount) {\n                winningVoteCount = proposals[p].voteCount;\n                winningProposal_ = p;\n            }\n        }\n    }\n    \n    function winnerName() constant returns (string) {\n    bytes memory bytesString = new bytes(32);\n    bytes32 x = proposals[winningProposal()].name;\n    uint charCount = 0;\n    for (uint j = 0; j < 32; j++) {\n        byte char = byte(bytes32(uint(x) * 2 ** (8 * j)));\n        if (char != 0) {\n            bytesString[charCount] = char;\n            charCount++;\n        }\n    }\n    bytes memory winnerName_ = new bytes(charCount);\n    for (j = 0; j < charCount; j++) {\n        winnerName_[j] = bytesString[j];\n    }\n    return string(winnerName_);\n}\n    function getNow() constant returns (uint){\n        timeNow = now;\n        return timeNow;\n    }\n    \n    \n\n    // Calls winningProposal() function to get the index\n    // of the winner contained in the proposals array and then\n    // returns the name of the winner\n    // function winnerName() public view \n    //        returns (bytes32 winnerName_)\n    //{\n    //    winnerName_ = proposals[winningProposal()].name;\n    //}\n\n}",
  "sourcePath": "/Users/lab508/Desktop/webweb/contracts/Ballot.sol",
  "compiler": {
    "name": "solc",
    "version": "0.4.18+commit.9cf6e910.Emscripten.clang"
  },
  "schemaVersion": "1.0.1",
  "updatedAt": "2018-04-23T11:00:04.142Z"
}