{
  "contractName": "Ballot",
  "abi": [
    {
      "constant": true,
      "inputs": [
        {
          "name": "",
          "type": "uint256"
        }
      ],
      "name": "proposals",
      "outputs": [
        {
          "name": "name",
          "type": "bytes32"
        },
        {
          "name": "voteCount",
          "type": "uint256"
        }
      ],
      "payable": false,
      "stateMutability": "view",
      "type": "function"
    },
    {
      "constant": true,
      "inputs": [],
      "name": "chairperson",
      "outputs": [
        {
          "name": "",
          "type": "address"
        }
      ],
      "payable": false,
      "stateMutability": "view",
      "type": "function"
    },
    {
      "constant": true,
      "inputs": [],
      "name": "timeToExpiry",
      "outputs": [
        {
          "name": "",
          "type": "uint256"
        }
      ],
      "payable": false,
      "stateMutability": "view",
      "type": "function"
    },
    {
      "constant": true,
      "inputs": [],
      "name": "startTime",
      "outputs": [
        {
          "name": "",
          "type": "uint256"
        }
      ],
      "payable": false,
      "stateMutability": "view",
      "type": "function"
    },
    {
      "constant": true,
      "inputs": [
        {
          "name": "",
          "type": "address"
        }
      ],
      "name": "voters",
      "outputs": [
        {
          "name": "weight",
          "type": "uint256"
        },
        {
          "name": "voted",
          "type": "bool"
        },
        {
          "name": "delegate",
          "type": "address"
        },
        {
          "name": "vote",
          "type": "uint256"
        }
      ],
      "payable": false,
      "stateMutability": "view",
      "type": "function"
    },
    {
      "constant": true,
      "inputs": [],
      "name": "timeNow",
      "outputs": [
        {
          "name": "",
          "type": "uint256"
        }
      ],
      "payable": false,
      "stateMutability": "view",
      "type": "function"
    },
    {
      "constant": false,
      "inputs": [
        {
          "name": "proposalNames",
          "type": "bytes32[]"
        },
        {
          "name": "_timeToExpiry",
          "type": "uint256"
        }
      ],
      "name": "Ballotbox",
      "outputs": [],
      "payable": false,
      "stateMutability": "nonpayable",
      "type": "function"
    },
    {
      "constant": false,
      "inputs": [
        {
          "name": "voter",
          "type": "address"
        }
      ],
      "name": "giveRightToVote",
      "outputs": [],
      "payable": true,
      "stateMutability": "payable",
      "type": "function"
    },
    {
      "constant": false,
      "inputs": [
        {
          "name": "proposal",
          "type": "uint256"
        }
      ],
      "name": "vote",
      "outputs": [],
      "payable": true,
      "stateMutability": "payable",
      "type": "function"
    },
    {
      "constant": true,
      "inputs": [],
      "name": "winningProposal",
      "outputs": [
        {
          "name": "winningProposal_",
          "type": "uint256"
        }
      ],
      "payable": false,
      "stateMutability": "view",
      "type": "function"
    },
    {
      "constant": true,
      "inputs": [],
      "name": "winnerName",
      "outputs": [
        {
          "name": "",
          "type": "string"
        }
      ],
      "payable": false,
      "stateMutability": "view",
      "type": "function"
    },
    {
      "constant": true,
      "inputs": [],
      "name": "getNow",
      "outputs": [
        {
          "name": "",
          "type": "uint256"
        }
      ],
      "payable": false,
      "stateMutability": "view",
      "type": "function"
    }
  ],
  "bytecode": "0x6060604052341561000f57600080fd5b610bc48061001e6000396000f3006060604052600436106100ba576000357c0100000000000000000000000000000000000000000000000000000000900463ffffffff1680630121b93f146100bf578063013cf08b146100d757806311d2ba0f1461011d5780632e4176cf146101805780633e84531c146101d5578063609ff1bd146101fe57806378e97925146102275780639e7b8d6114610250578063a3ec138d1461027e578063bbe4fd5014610310578063d95660be14610339578063e2ba53f014610362575b600080fd5b6100d560048080359060200190919050506103f0565b005b34156100e257600080fd5b6100f86004808035906020019091905050610508565b6040518083600019166000191681526020018281526020019250505060405180910390f35b341561012857600080fd5b61017e60048080359060200190820180359060200190808060200260200160405190810160405280939291908181526020018383602002808284378201915050505050509190803590602001909190505061053b565b005b341561018b57600080fd5b61019361068b565b604051808273ffffffffffffffffffffffffffffffffffffffff1673ffffffffffffffffffffffffffffffffffffffff16815260200191505060405180910390f35b34156101e057600080fd5b6101e86106b0565b6040518082815260200191505060405180910390f35b341561020957600080fd5b6102116106b6565b6040518082815260200191505060405180910390f35b341561023257600080fd5b61023a610731565b6040518082815260200191505060405180910390f35b61027c600480803573ffffffffffffffffffffffffffffffffffffffff16906020019091905050610737565b005b341561028957600080fd5b6102b5600480803573ffffffffffffffffffffffffffffffffffffffff16906020019091905050610884565b60405180858152602001841515151581526020018373ffffffffffffffffffffffffffffffffffffffff1673ffffffffffffffffffffffffffffffffffffffff16815260200182815260200194505050505060405180910390f35b341561031b57600080fd5b6103236108e1565b6040518082815260200191505060405180910390f35b341561034457600080fd5b61034c6108f2565b6040518082815260200191505060405180910390f35b341561036d57600080fd5b6103756108f8565b6040518080602001828103825283818151815260200191508051906020019080838360005b838110156103b557808201518184015260208101905061039a565b50505050905090810190601f1680156103e25780820380516001836020036101000a031916815260200191505b509250505060405180910390f35b6000600460003373ffffffffffffffffffffffffffffffffffffffff1673ffffffffffffffffffffffffffffffffffffffff16815260200190815260200160002090508060010160009054906101000a900460ff1615801561049457506001600460003373ffffffffffffffffffffffffffffffffffffffff1673ffffffffffffffffffffffffffffffffffffffff16815260200190815260200160002060000154145b80156104a1575060015442105b15156104ac57600080fd5b60018160010160006101000a81548160ff02191690831515021790555081816002018190555080600001546005838154811015156104e657fe5b9060005260206000209060020201600101600082825401925050819055505050565b60058181548110151561051757fe5b90600052602060002090600202016000915090508060000154908060010154905082565b6000336000806101000a81548173ffffffffffffffffffffffffffffffffffffffff021916908373ffffffffffffffffffffffffffffffffffffffff1602179055506001600460008060009054906101000a900473ffffffffffffffffffffffffffffffffffffffff1673ffffffffffffffffffffffffffffffffffffffff1673ffffffffffffffffffffffffffffffffffffffff168152602001908152602001600020600001819055508160018190555042600281905550600090505b825181101561068657600580548060010182816106169190610b0f565b916000526020600020906002020160006040805190810160405280878681518110151561063f57fe5b9060200190602002015160001916815260200160008152509091909150600082015181600001906000191690556020820151816001015550505080806001019150506105f9565b505050565b6000809054906101000a900473ffffffffffffffffffffffffffffffffffffffff1681565b60015481565b6000806000809150600090505b60058054905081101561072c57816005828154811015156106e057fe5b906000526020600020906002020160010154111561071f5760058181548110151561070757fe5b90600052602060002090600202016001015491508092505b80806001019150506106c3565b505090565b60025481565b6000809054906101000a900473ffffffffffffffffffffffffffffffffffffffff1673ffffffffffffffffffffffffffffffffffffffff163373ffffffffffffffffffffffffffffffffffffffff161480156107e05750600460008273ffffffffffffffffffffffffffffffffffffffff1673ffffffffffffffffffffffffffffffffffffffff16815260200190815260200160002060010160009054906101000a900460ff16155b801561082e57506000600460008373ffffffffffffffffffffffffffffffffffffffff1673ffffffffffffffffffffffffffffffffffffffff16815260200190815260200160002060000154145b151561083957600080fd5b6001600460008373ffffffffffffffffffffffffffffffffffffffff1673ffffffffffffffffffffffffffffffffffffffff1681526020019081526020016000206000018190555050565b60046020528060005260406000206000915090508060000154908060010160009054906101000a900460ff16908060010160019054906101000a900473ffffffffffffffffffffffffffffffffffffffff16908060020154905084565b600042600381905550600354905090565b60035481565b610900610b41565b610908610b55565b600080600080610916610b55565b60206040518059106109255750595b9080825280601f01601f1916602001820160405250955060056109466106b6565b81548110151561095257fe5b906000526020600020906002020160000154945060009350600092505b6020831015610a2d578260080260020a856001900402600102915060007f010000000000000000000000000000000000000000000000000000000000000002827effffffffffffffffffffffffffffffffffffffffffffffffffffffffffffff1916141515610a20578186858151811015156109e757fe5b9060200101907effffffffffffffffffffffffffffffffffffffffffffffffffffffffffffff1916908160001a90535083806001019450505b828060010193505061096f565b83604051805910610a3b5750595b9080825280601f01601f19166020018201604052509050600092505b83831015610b03578583815181101515610a6d57fe5b9060200101517f010000000000000000000000000000000000000000000000000000000000000090047f0100000000000000000000000000000000000000000000000000000000000000028184815181101515610ac657fe5b9060200101907effffffffffffffffffffffffffffffffffffffffffffffffffffffffffffff1916908160001a9053508280600101935050610a57565b80965050505050505090565b815481835581811511610b3c57600202816002028360005260206000209182019101610b3b9190610b69565b5b505050565b602060405190810160405280600081525090565b602060405190810160405280600081525090565b610b9591905b80821115610b9157600080820160009055600182016000905550600201610b6f565b5090565b905600a165627a7a723058205a741107e50ce7252870e63ce49323f028831d73e3dcdf6603fa3900a72a94450029",
  "source": "pragma solidity ^0.4.16;\r\n\r\n/// @title Voting with delegation.\r\ncontract Ballot {\r\n    // This declares a new complex type which will\r\n    // be used for variables later.\r\n    // It will represent a single voter.\r\n    struct Voter {\r\n        uint weight; // weight is accumulated by delegation\r\n        bool voted;  // if true, that person already voted\r\n        address delegate; // person delegated to\r\n        uint vote;   // index of the voted proposal\r\n    }\r\n\r\n    // This is a type for a single proposal.\r\n    struct Proposal {\r\n        bytes32 name;   // short name (up to 32 bytes)\r\n        uint voteCount; // number of accumulated votes\r\n    }\r\n\r\n    address public chairperson;\r\n    uint public timeToExpiry;\r\n    uint public startTime;\r\n    uint public timeNow;\r\n\r\n    // This declares a state variable that\r\n    // stores a `Voter` struct for each possible address.\r\n    mapping(address => Voter) public voters;\r\n\r\n    // A dynamically-sized array of `Proposal` structs.\r\n    Proposal[] public proposals;\r\n\r\n    /// Create a new ballot to choose one of `proposalNames`.\r\n    function Ballotbox(bytes32[] proposalNames ,uint _timeToExpiry) public {\r\n        chairperson = msg.sender;\r\n        voters[chairperson].weight = 1;\r\n        timeToExpiry = _timeToExpiry;\r\n        startTime = now;\r\n\r\n        // For each of the provided proposal names,\r\n        // create a new proposal object and add it\r\n        // to the end of the array.\r\n        for (uint i = 0; i < proposalNames.length; i++) {\r\n            // `Proposal({...})` creates a temporary\r\n            // Proposal object and `proposals.push(...)`\r\n            // appends it to the end of `proposals`.\r\n            proposals.push(Proposal({\r\n                name: proposalNames[i],\r\n                voteCount: 0\r\n            }));\r\n        }\r\n    }\r\n\r\n\r\n    // Give `voter` the right to vote on this ballot.\r\n    // May only be called by `chairperson`.\r\n    function giveRightToVote(address voter) public payable{\r\n        // If the argument of `require` evaluates to `false`,\r\n        // it terminates and reverts all changes to\r\n        // the state and to Ether balances. It is often\r\n        // a good idea to use this if functions are\r\n        // called incorrectly. But watch out, this\r\n        // will currently also consume all provided gas\r\n        // (this is planned to change in the future).\r\n        require(\r\n            (msg.sender == chairperson) &&\r\n            !voters[voter].voted &&\r\n            (voters[voter].weight == 0)\r\n        );\r\n        voters[voter].weight = 1;\r\n    }\r\n\r\n    // /// Delegate your vote to the voter `to`.\r\n    // function delegate(address to) public {\r\n    //     // assigns reference\r\n    //     Voter storage sender = voters[msg.sender];\r\n    //     require(!sender.voted);\r\n\r\n    //     // Self-delegation is not allowed.\r\n    //     require(to != msg.sender);\r\n        \r\n    //     // Forward the delegation as long as\r\n    //     // `to` also delegated.\r\n    //     // In general, such loops are very dangerous,\r\n    //     // because if they run too long, they might\r\n    //     // need more gas than is available in a block.\r\n    //     // In this case, the delegation will not be executed,\r\n    //     // but in other situations, such loops might\r\n    //     // cause a contract to get \"stuck\" completely.\r\n    //     while (voters[to].delegate != address(0)) {\r\n    //         to = voters[to].delegate;\r\n\r\n    //         // We found a loop in the delegation, not allowed.\r\n    //         require(to != msg.sender);\r\n    //     }\r\n\r\n    //     // Since `sender` is a reference, this\r\n    //     // modifies `voters[msg.sender].voted`\r\n    //     sender.voted = true;\r\n    //     sender.delegate = to;\r\n    //     Voter storage delegate_ = voters[to];\r\n    //     if (delegate_.voted) {\r\n    //         // If the delegate already voted,\r\n    //         // directly add to the number of votes\r\n    //         proposals[delegate_.vote].voteCount += sender.weight;\r\n    //     } else {\r\n    //         // If the delegate did not vote yet,\r\n    //         // add to her weight.\r\n    //         delegate_.weight += sender.weight;\r\n    //     }\r\n    // }\r\n\r\n    /// Give your vote (including votes delegated to you)\r\n    /// to proposal `proposals[proposal].name`.\r\n    function vote(uint proposal) public payable{\r\n        Voter storage sender = voters[msg.sender];\r\n        require((!sender.voted) &&\r\n            (voters[msg.sender].weight == 1) &&\r\n            (now < timeToExpiry));\r\n        sender.voted = true;\r\n        sender.vote = proposal;\r\n\r\n        // If `proposal` is out of the range of the array,\r\n        // this will throw automatically and revert all\r\n        // changes.\r\n        proposals[proposal].voteCount += sender.weight;\r\n    }\r\n\r\n    /// @dev Computes the winning proposal taking all\r\n    /// previous votes into account.\r\n    function winningProposal() public view\r\n            returns (uint winningProposal_)\r\n    {\r\n        uint winningVoteCount = 0;\r\n        for (uint p = 0; p < proposals.length; p++) {\r\n            if (proposals[p].voteCount > winningVoteCount) {\r\n                winningVoteCount = proposals[p].voteCount;\r\n                winningProposal_ = p;\r\n            }\r\n        }\r\n    }\r\n    \r\n    function winnerName() constant returns (string) {\r\n    bytes memory bytesString = new bytes(32);\r\n    bytes32 x = proposals[winningProposal()].name;\r\n    uint charCount = 0;\r\n    for (uint j = 0; j < 32; j++) {\r\n        byte char = byte(bytes32(uint(x) * 2 ** (8 * j)));\r\n        if (char != 0) {\r\n            bytesString[charCount] = char;\r\n            charCount++;\r\n        }\r\n    }\r\n    bytes memory winnerName_ = new bytes(charCount);\r\n    for (j = 0; j < charCount; j++) {\r\n        winnerName_[j] = bytesString[j];\r\n    }\r\n    return string(winnerName_);\r\n}\r\n    function getNow() constant returns (uint){\r\n        timeNow = now;\r\n        return timeNow;\r\n    }\r\n    \r\n    \r\n\r\n    // Calls winningProposal() function to get the index\r\n    // of the winner contained in the proposals array and then\r\n    // returns the name of the winner\r\n    // function winnerName() public view \r\n    //        returns (bytes32 winnerName_)\r\n    //{\r\n    //    winnerName_ = proposals[winningProposal()].name;\r\n    //}\r\n\r\n}",
  "sourcePath": "C:\\Users\\BOOM\\Documents\\GitHub\\Web1.0\\Webpage\\contracts\\Ballot.sol",
  "compiler": {
    "name": "solc",
    "version": "0.4.19+commit.c4cbbb05.Emscripten.clang"
  },
  "schemaVersion": "2.0.0",
  "updatedAt": "2018-04-23T17:44:26.911Z"
}