{
  "contractName": "Ballot",
  "abi": [
    {
      "constant": true,
      "inputs": [
        {
          "name": "",
          "type": "uint256"
        }
      ],
      "name": "proposals",
      "outputs": [
        {
          "name": "name",
          "type": "bytes32"
        },
        {
          "name": "voteCount",
          "type": "uint256"
        }
      ],
      "payable": false,
      "stateMutability": "view",
      "type": "function"
    },
    {
      "constant": true,
      "inputs": [],
      "name": "createCan",
      "outputs": [
        {
          "name": "",
          "type": "bool"
        }
      ],
      "payable": false,
      "stateMutability": "view",
      "type": "function"
    },
    {
      "constant": true,
      "inputs": [],
      "name": "chairperson",
      "outputs": [
        {
          "name": "",
          "type": "address"
        }
      ],
      "payable": false,
      "stateMutability": "view",
      "type": "function"
    },
    {
      "constant": true,
      "inputs": [],
      "name": "timeToExpiry",
      "outputs": [
        {
          "name": "",
          "type": "uint256"
        }
      ],
      "payable": false,
      "stateMutability": "view",
      "type": "function"
    },
    {
      "constant": true,
      "inputs": [],
      "name": "endTimeStamp",
      "outputs": [
        {
          "name": "",
          "type": "uint256"
        }
      ],
      "payable": false,
      "stateMutability": "view",
      "type": "function"
    },
    {
      "constant": true,
      "inputs": [],
      "name": "startTime",
      "outputs": [
        {
          "name": "",
          "type": "uint256"
        }
      ],
      "payable": false,
      "stateMutability": "view",
      "type": "function"
    },
    {
      "constant": true,
      "inputs": [
        {
          "name": "",
          "type": "address"
        }
      ],
      "name": "voters",
      "outputs": [
        {
          "name": "weight",
          "type": "uint256"
        },
        {
          "name": "voted",
          "type": "bool"
        },
        {
          "name": "delegate",
          "type": "address"
        },
        {
          "name": "vote",
          "type": "uint256"
        }
      ],
      "payable": false,
      "stateMutability": "view",
      "type": "function"
    },
    {
      "constant": true,
      "inputs": [],
      "name": "voteCountNow",
      "outputs": [
        {
          "name": "",
          "type": "uint256"
        }
      ],
      "payable": false,
      "stateMutability": "view",
      "type": "function"
    },
    {
      "constant": true,
      "inputs": [],
      "name": "titleVote",
      "outputs": [
        {
          "name": "",
          "type": "string"
        }
      ],
      "payable": false,
      "stateMutability": "view",
      "type": "function"
    },
    {
      "constant": true,
      "inputs": [],
      "name": "timeNow",
      "outputs": [
        {
          "name": "",
          "type": "uint256"
        }
      ],
      "payable": false,
      "stateMutability": "view",
      "type": "function"
    },
    {
      "constant": true,
      "inputs": [],
      "name": "startTimeStamp",
      "outputs": [
        {
          "name": "",
          "type": "uint256"
        }
      ],
      "payable": false,
      "stateMutability": "view",
      "type": "function"
    },
    {
      "constant": true,
      "inputs": [
        {
          "name": "",
          "type": "uint256"
        }
      ],
      "name": "scoreAll",
      "outputs": [
        {
          "name": "",
          "type": "uint256"
        }
      ],
      "payable": false,
      "stateMutability": "view",
      "type": "function"
    },
    {
      "constant": false,
      "inputs": [
        {
          "name": "title_",
          "type": "string"
        },
        {
          "name": "proposalNames",
          "type": "bytes32[]"
        },
        {
          "name": "_startTime",
          "type": "uint256"
        },
        {
          "name": "_timeToExpiry",
          "type": "uint256"
        }
      ],
      "name": "Ballot_box",
      "outputs": [],
      "payable": true,
      "stateMutability": "payable",
      "type": "function"
    },
    {
      "constant": false,
      "inputs": [
        {
          "name": "startTime_",
          "type": "uint256"
        }
      ],
      "name": "setStartTimeStamp",
      "outputs": [
        {
          "name": "",
          "type": "uint256"
        }
      ],
      "payable": false,
      "stateMutability": "nonpayable",
      "type": "function"
    },
    {
      "constant": false,
      "inputs": [
        {
          "name": "endTime_",
          "type": "uint256"
        }
      ],
      "name": "setEndTimeStamp",
      "outputs": [
        {
          "name": "",
          "type": "uint256"
        }
      ],
      "payable": false,
      "stateMutability": "nonpayable",
      "type": "function"
    },
    {
      "constant": false,
      "inputs": [],
      "name": "getStartTimeStamp",
      "outputs": [
        {
          "name": "startTimeStamp_",
          "type": "uint256"
        }
      ],
      "payable": false,
      "stateMutability": "nonpayable",
      "type": "function"
    },
    {
      "constant": false,
      "inputs": [],
      "name": "getEndTimeStamp",
      "outputs": [
        {
          "name": "endTimeStamp_",
          "type": "uint256"
        }
      ],
      "payable": false,
      "stateMutability": "nonpayable",
      "type": "function"
    },
    {
      "constant": false,
      "inputs": [],
      "name": "checkCreate",
      "outputs": [
        {
          "name": "already_",
          "type": "bool"
        }
      ],
      "payable": false,
      "stateMutability": "nonpayable",
      "type": "function"
    },
    {
      "constant": false,
      "inputs": [],
      "name": "getTitle",
      "outputs": [
        {
          "name": "nameTitle_",
          "type": "string"
        }
      ],
      "payable": false,
      "stateMutability": "nonpayable",
      "type": "function"
    },
    {
      "constant": true,
      "inputs": [],
      "name": "getProposalsName",
      "outputs": [
        {
          "name": "nameCandi_",
          "type": "bytes32[]"
        }
      ],
      "payable": false,
      "stateMutability": "view",
      "type": "function"
    },
    {
      "constant": true,
      "inputs": [],
      "name": "getProposalsCounts",
      "outputs": [
        {
          "name": "",
          "type": "uint256"
        }
      ],
      "payable": false,
      "stateMutability": "view",
      "type": "function"
    },
    {
      "constant": false,
      "inputs": [
        {
          "name": "voter",
          "type": "address"
        }
      ],
      "name": "giveRightToVote",
      "outputs": [],
      "payable": true,
      "stateMutability": "payable",
      "type": "function"
    },
    {
      "constant": false,
      "inputs": [
        {
          "name": "proposal",
          "type": "uint256"
        }
      ],
      "name": "vote",
      "outputs": [],
      "payable": true,
      "stateMutability": "payable",
      "type": "function"
    },
    {
      "constant": true,
      "inputs": [],
      "name": "getVoteCountNow",
      "outputs": [
        {
          "name": "",
          "type": "uint256"
        }
      ],
      "payable": false,
      "stateMutability": "view",
      "type": "function"
    },
    {
      "constant": true,
      "inputs": [],
      "name": "winningProposal",
      "outputs": [
        {
          "name": "winningProposal_",
          "type": "uint256"
        }
      ],
      "payable": false,
      "stateMutability": "view",
      "type": "function"
    },
    {
      "constant": false,
      "inputs": [],
      "name": "scoreProposal",
      "outputs": [
        {
          "name": "scoreProposal_",
          "type": "uint256[]"
        }
      ],
      "payable": true,
      "stateMutability": "payable",
      "type": "function"
    },
    {
      "constant": true,
      "inputs": [],
      "name": "winnerName",
      "outputs": [
        {
          "name": "",
          "type": "string"
        }
      ],
      "payable": false,
      "stateMutability": "view",
      "type": "function"
    },
    {
      "constant": false,
      "inputs": [],
      "name": "getNow",
      "outputs": [
        {
          "name": "",
          "type": "uint256"
        }
      ],
      "payable": true,
      "stateMutability": "payable",
      "type": "function"
    }
  ],
  "bytecode": "0x60806040526000600960006101000a81548160ff02191690831515021790555034801561002b57600080fd5b5061150f8061003b6000396000f30060806040526004361061016a576000357c0100000000000000000000000000000000000000000000000000000000900463ffffffff1680630121b93f1461016f578063013cf08b1461018f578063214e5c74146101df5780632352ee601461020e5780632e4176cf146102395780633343414b146102905780633e84531c146102bb57806350c90b0f146102e657806351906bb014610352578063609ff1bd1461037d57806378e97925146103a857806388aa62d0146103d357806394996680146104325780639a45fa6e146104735780639e4c6824146105265780639e7b8d6114610551578063a3ec138d14610587578063af88b11414610623578063bbe4fd501461064e578063c456354e1461066c578063d3d73abd146106ad578063d8b34d781461073d578063d95660be1461076c578063e2ba53f014610797578063f38d00f014610827578063f6d4ec2614610852578063fc14a2d81461087d578063ff3c1a8f146108be575b600080fd5b61018d6004803603810190808035906020019092919050505061094e565b005b34801561019b57600080fd5b506101ba60048036038101908080359060200190929190505050610a81565b6040518083600019166000191681526020018281526020019250505060405180910390f35b3480156101eb57600080fd5b506101f4610ab4565b604051808215151515815260200191505060405180910390f35b34801561021a57600080fd5b50610223610ac7565b6040518082815260200191505060405180910390f35b34801561024557600080fd5b5061024e610ad4565b604051808273ffffffffffffffffffffffffffffffffffffffff1673ffffffffffffffffffffffffffffffffffffffff16815260200191505060405180910390f35b34801561029c57600080fd5b506102a5610af9565b6040518082815260200191505060405180910390f35b3480156102c757600080fd5b506102d0610b03565b6040518082815260200191505060405180910390f35b3480156102f257600080fd5b506102fb610b09565b6040518080602001828103825283818151815260200191508051906020019060200280838360005b8381101561033e578082015181840152602081019050610323565b505050509050019250505060405180910390f35b34801561035e57600080fd5b50610367610b65565b6040518082815260200191505060405180910390f35b34801561038957600080fd5b50610392610b6b565b6040518082815260200191505060405180910390f35b3480156103b457600080fd5b506103bd610be6565b6040518082815260200191505060405180910390f35b6103db610bec565b6040518080602001828103825283818151815260200191508051906020019060200280838360005b8381101561041e578082015181840152602081019050610403565b505050509050019250505060405180910390f35b34801561043e57600080fd5b5061045d60048036038101908080359060200190929190505050610c8a565b6040518082815260200191505060405180910390f35b610524600480360381019080803590602001908201803590602001908080601f0160208091040260200160405190810160405280939291908181526020018383808284378201915050505050509192919290803590602001908201803590602001908080602002602001604051908101604052809392919081815260200183836020028082843782019150505050505091929192908035906020019092919080359060200190929190505050610c98565b005b34801561053257600080fd5b5061053b610e37565b6040518082815260200191505060405180910390f35b610585600480360381019080803573ffffffffffffffffffffffffffffffffffffffff169060200190929190505050610e41565b005b34801561059357600080fd5b506105c8600480360381019080803573ffffffffffffffffffffffffffffffffffffffff169060200190929190505050610f8e565b60405180858152602001841515151581526020018373ffffffffffffffffffffffffffffffffffffffff1673ffffffffffffffffffffffffffffffffffffffff16815260200182815260200194505050505060405180910390f35b34801561062f57600080fd5b50610638610feb565b6040518082815260200191505060405180910390f35b610656610ff1565b6040518082815260200191505060405180910390f35b34801561067857600080fd5b5061069760048036038101908080359060200190929190505050611002565b6040518082815260200191505060405180910390f35b3480156106b957600080fd5b506106c2611010565b6040518080602001828103825283818151815260200191508051906020019080838360005b838110156107025780820151818401526020810190506106e7565b50505050905090810190601f16801561072f5780820380516001836020036101000a031916815260200191505b509250505060405180910390f35b34801561074957600080fd5b506107526110ae565b604051808215151515815260200191505060405180910390f35b34801561077857600080fd5b506107816110c5565b6040518082815260200191505060405180910390f35b3480156107a357600080fd5b506107ac6110cb565b6040518080602001828103825283818151815260200191508051906020019080838360005b838110156107ec5780820151818401526020810190506107d1565b50505050905090810190601f1680156108195780820380516001836020036101000a031916815260200191505b509250505060405180910390f35b34801561083357600080fd5b5061083c6112f1565b6040518082815260200191505060405180910390f35b34801561085e57600080fd5b506108676112f7565b6040518082815260200191505060405180910390f35b34801561088957600080fd5b506108a860048036038101908080359060200190929190505050611301565b6040518082815260200191505060405180910390f35b3480156108ca57600080fd5b506108d3611324565b6040518080602001828103825283818151815260200191508051906020019080838360005b838110156109135780820151818401526020810190506108f8565b50505050905090810190601f1680156109405780820380516001836020036101000a031916815260200191505b509250505060405180910390f35b6000600a60003373ffffffffffffffffffffffffffffffffffffffff1673ffffffffffffffffffffffffffffffffffffffff16815260200190815260200160002090508060010160009054906101000a900460ff161580156109f257506001600a60003373ffffffffffffffffffffffffffffffffffffffff1673ffffffffffffffffffffffffffffffffffffffff16815260200190815260200160002060000154145b80156109ff575060015442105b8015610a0c575060025442115b1515610a1757600080fd5b60018160010160006101000a81548160ff02191690831515021790555081816002018190555060016004600082825401925050819055506001600b83815481101515610a5f57fe5b9060005260206000209060020201600101600082825401925050819055505050565b600b81815481101515610a9057fe5b90600052602060002090600202016000915090508060000154908060010154905082565b600960009054906101000a900460ff1681565b6000600b80549050905090565b6000809054906101000a900473ffffffffffffffffffffffffffffffffffffffff1681565b6000600854905090565b60015481565b6060600c805480602002602001604051908101604052809291908181526020018280548015610b5b57602002820191906000526020600020905b81546000191681526020019060010190808311610b43575b5050505050905090565b60085481565b6000806000809150600090505b600b80549050811015610be15781600b82815481101515610b9557fe5b9060005260206000209060020201600101541115610bd457600b81815481101515610bbc57fe5b90600052602060002090600202016001015491508092505b8080600101915050610b78565b505090565b60025481565b60606000600b80549050604051908082528060200260200182016040528015610c245781602001602082028038833980820191505090505b509150600090505b600b80549050811015610c8357600b81815481101515610c4857fe5b9060005260206000209060020201600101548282815181101515610c6857fe5b90602001906020020181815250508080600101915050610c2c565b8191505090565b600081600781905550919050565b6000336000806101000a81548173ffffffffffffffffffffffffffffffffffffffff021916908373ffffffffffffffffffffffffffffffffffffffff1602179055506001600a60008060009054906101000a900473ffffffffffffffffffffffffffffffffffffffff1673ffffffffffffffffffffffffffffffffffffffff1673ffffffffffffffffffffffffffffffffffffffff1681526020019081526020016000206000018190555081600181905550826002819055508460059080519060200190610d679291906113c6565b5083600c9080519060200190610d7e929190611446565b506001600960006101000a81548160ff021916908315150217905550600090505b8351811015610e3057600b60408051908101604052808684815181101515610dc357fe5b9060200190602002015160001916815260200160008152509080600181540180825580915050906001820390600052602060002090600202016000909192909190915060008201518160000190600019169055602082015181600101555050508080600101915050610d9f565b5050505050565b6000600454905090565b6000809054906101000a900473ffffffffffffffffffffffffffffffffffffffff1673ffffffffffffffffffffffffffffffffffffffff163373ffffffffffffffffffffffffffffffffffffffff16148015610eea5750600a60008273ffffffffffffffffffffffffffffffffffffffff1673ffffffffffffffffffffffffffffffffffffffff16815260200190815260200160002060010160009054906101000a900460ff16155b8015610f3857506000600a60008373ffffffffffffffffffffffffffffffffffffffff1673ffffffffffffffffffffffffffffffffffffffff16815260200190815260200160002060000154145b1515610f4357600080fd5b6001600a60008373ffffffffffffffffffffffffffffffffffffffff1673ffffffffffffffffffffffffffffffffffffffff1681526020019081526020016000206000018190555050565b600a6020528060005260406000206000915090508060000154908060010160009054906101000a900460ff16908060010160019054906101000a900473ffffffffffffffffffffffffffffffffffffffff16908060020154905084565b60045481565b600042600381905550600354905090565b600081600881905550919050565b60058054600181600116156101000203166002900480601f0160208091040260200160405190810160405280929190818152602001828054600181600116156101000203166002900480156110a65780601f1061107b576101008083540402835291602001916110a6565b820191906000526020600020905b81548152906001019060200180831161108957829003601f168201915b505050505081565b6000600960009054906101000a900460ff16905090565b60035481565b606080600080600080606060206040519080825280601f01601f19166020018201604052801561110a5781602001602082028038833980820191505090505b509550600b611117610b6b565b81548110151561112357fe5b906000526020600020906002020160000154945060009350600092505b60208310156111fe578260080260020a856001900402600102915060007f010000000000000000000000000000000000000000000000000000000000000002827effffffffffffffffffffffffffffffffffffffffffffffffffffffffffffff19161415156111f1578186858151811015156111b857fe5b9060200101907effffffffffffffffffffffffffffffffffffffffffffffffffffffffffffff1916908160001a90535083806001019450505b8280600101935050611140565b836040519080825280601f01601f1916602001820160405280156112315781602001602082028038833980820191505090505b509050600092505b838310156112e557858381518110151561124f57fe5b9060200101517f010000000000000000000000000000000000000000000000000000000000000090047f01000000000000000000000000000000000000000000000000000000000000000281848151811015156112a857fe5b9060200101907effffffffffffffffffffffffffffffffffffffffffffffffffffffffffffff1916908160001a9053508280600101935050611239565b80965050505050505090565b60075481565b6000600754905090565b60068181548110151561131057fe5b906000526020600020016000915090505481565b606060058054600181600116156101000203166002900480601f0160208091040260200160405190810160405280929190818152602001828054600181600116156101000203166002900480156113bc5780601f10611391576101008083540402835291602001916113bc565b820191906000526020600020905b81548152906001019060200180831161139f57829003601f168201915b5050505050905090565b828054600181600116156101000203166002900490600052602060002090601f016020900481019282601f1061140757805160ff1916838001178555611435565b82800160010185558215611435579182015b82811115611434578251825591602001919060010190611419565b5b5090506114429190611499565b5090565b828054828255906000526020600020908101928215611488579160200282015b82811115611487578251829060001916905591602001919060010190611466565b5b50905061149591906114be565b5090565b6114bb91905b808211156114b757600081600090555060010161149f565b5090565b90565b6114e091905b808211156114dc5760008160009055506001016114c4565b5090565b905600a165627a7a72305820d00de02669153eb3cdb195031872210b449722c90a0d6c38f3f1e08e3f2fa21c0029",
  "source": "pragma solidity ^0.4.16;\n\n/// @title Voting with delegation.\ncontract Ballot {\n    // This declares a new complex type which will\n    // be used for variables later.\n    // It will represent a single voter.\n    struct Voter {\n        uint weight; // weight is accumulated by delegation\n        bool voted;  // if true, that person already voted\n        address delegate; // person delegated to\n        uint vote;   // index of the voted proposal\n    }\n\n    // This is a type for a single proposal.\n    struct Proposal {\n        bytes32 name;   // short name (up to 32 bytes)\n        uint voteCount; // number of accumulated votes\n    }\n\n    address public chairperson;\n    uint public timeToExpiry;\n    uint public startTime;\n    uint public timeNow;\n    uint public voteCountNow;\n    string public titleVote;\n    uint[] public scoreAll;\n    uint public startTimeStamp;\n    uint public endTimeStamp;\n    bool public createCan = false;\n\n    // This declares a state variable that\n    // stores a `Voter` struct for each possible address.\n    mapping(address => Voter) public voters;\n\n    // A dynamically-sized array of `Proposal` structs.\n    Proposal[] public proposals;\n    bytes32[] Candidate;\n\n    /// Create a new ballot to choose one of `proposalNames`.\n    function Ballot_box(string title_, bytes32[] proposalNames ,uint _startTime ,uint _timeToExpiry) public payable{\n        chairperson = msg.sender;\n        voters[chairperson].weight = 1;\n        timeToExpiry = _timeToExpiry;\n        startTime = _startTime;\n        titleVote = title_;\n        Candidate = proposalNames;\n        createCan = true;\n\n        // For each of the provided proposal names,\n        // create a new proposal object and add it\n        // to the end of the array.\n        for (uint i = 0; i < proposalNames.length; i++) {\n            // `Proposal({...})` creates a temporary\n            // Proposal object and `proposals.push(...)`\n            // appends it to the end of `proposals`.\n            proposals.push(Proposal({\n                name: proposalNames[i],\n                voteCount: 0\n            }));\n        }\n    }\n\n    function setStartTimeStamp(uint startTime_) public returns (uint){\n        startTimeStamp = startTime_;\n    }\n\n    function setEndTimeStamp(uint endTime_) public returns (uint){\n        endTimeStamp = endTime_;\n    }\n\n    function getStartTimeStamp() public returns (uint startTimeStamp_) {\n        startTimeStamp_ = startTimeStamp;\n    }\n\n    function getEndTimeStamp() public returns (uint endTimeStamp_) {\n        endTimeStamp_ = endTimeStamp;\n    }\n\n    function checkCreate() public returns (bool already_){\n        already_ = createCan;\n    }\n\n    function getTitle() public returns (string nameTitle_) {\n        nameTitle_ = titleVote;\n    }\n    \n    function getProposalsName() public constant returns (bytes32[] nameCandi_) {\n        nameCandi_ = Candidate;\n    }\n\n\n    function getProposalsCounts() public constant returns (uint) {\n        return (proposals.length);\n    }   \n\n\n    // Give `voter` the right to vote on this ballot.\n    // May only be called by `chairperson`.\n    function giveRightToVote(address voter) public payable{\n        // If the argument of `require` evaluates to `false`,\n        // it terminates and reverts all changes to\n        // the state and to Ether balances. It is often\n        // a good idea to use this if functions are\n        // called incorrectly. But watch out, this\n        // will currently also consume all provided gas\n        // (this is planned to change in the future).\n        require(\n            (msg.sender == chairperson) &&\n            !voters[voter].voted &&\n            (voters[voter].weight == 0)\n        );\n        voters[voter].weight = 1;\n    }\n\n    /// Give your vote (including votes delegated to you)\n    /// to proposal `proposals[proposal].name`.\n    function vote(uint proposal) public payable{\n        Voter storage sender = voters[msg.sender];\n        require((!sender.voted) &&\n            (voters[msg.sender].weight == 1) &&\n            (now < timeToExpiry) &&\n            (now > startTime));\n        sender.voted = true;\n        sender.vote = proposal;\n\n        // If `proposal` is out of the range of the array,\n        // this will throw automatically and revert all\n        // changes.\n        voteCountNow += 1;\n        proposals[proposal].voteCount += 1;\n    }\n\n    function getVoteCountNow() public constant returns (uint) {\n        return voteCountNow;\n    }\n\n    /// @dev Computes the winning proposal taking all\n    /// previous votes into account.\n    function winningProposal() public view\n            returns (uint winningProposal_)\n    {\n        uint winningVoteCount = 0;\n        for (uint p = 0; p < proposals.length; p++) {\n            if (proposals[p].voteCount > winningVoteCount) {\n                winningVoteCount = proposals[p].voteCount;\n                winningProposal_ = p;\n            }\n        }\n    }\n\n    function scoreProposal() public payable returns(uint[] scoreProposal_) {\n        scoreProposal_ = new uint[](proposals.length);\n        for (uint i = 0; i < proposals.length; i++) {\n            scoreProposal_[i] = proposals[i].voteCount;\n        }\n        return scoreProposal_;\n    }\n    \n    function winnerName() public view  returns (string) {\n            bytes memory bytesString = new bytes(32);\n            bytes32 x = proposals[winningProposal()].name;\n            uint charCount = 0;\n        for (uint j = 0; j < 32; j++) {\n            byte char = byte(bytes32(uint(x) * 2 ** (8 * j)));\n                if (char != 0) {\n                    bytesString[charCount] = char;\n                    charCount++;\n                }\n            }\n        bytes memory winnerName_ = new bytes(charCount);\n        for (j = 0; j < charCount; j++) {\n            winnerName_[j] = bytesString[j];\n        }\n    return string(winnerName_);\n\n}\n    function getNow() public payable returns (uint){\n        timeNow = now;\n        return timeNow;\n    }\n    \n    \n\n    // Calls winningProposal() function to get the index\n    // of the winner contained in the proposals array and then\n    // returns the name of the winner\n    // function winnerName() public view \n    //        returns (bytes32 winnerName_)\n    //{\n    //    winnerName_ = proposals[winningProposal()].name;\n    //}\n\n}",
  "sourcePath": "/Users/boom/Desktop/Electronic_vote/contracts/ballot.sol",
  "compiler": {
    "name": "solc",
    "version": "0.4.23+commit.124ca40d.Emscripten.clang"
  },
  "schemaVersion": "2.0.0",
  "updatedAt": "2018-05-22T06:34:35.778Z"
}