{
  "contractName": "Ballot",
  "abi": [
    {
      "constant": false,
      "inputs": [
        {
          "name": "proposal",
          "type": "uint256"
        }
      ],
      "name": "vote",
      "outputs": [],
      "payable": true,
      "stateMutability": "payable",
      "type": "function"
    },
    {
      "constant": true,
      "inputs": [
        {
          "name": "",
          "type": "uint256"
        }
      ],
      "name": "proposals",
      "outputs": [
        {
          "name": "name",
          "type": "bytes32"
        },
        {
          "name": "voteCount",
          "type": "uint256"
        }
      ],
      "payable": false,
      "stateMutability": "view",
      "type": "function"
    },
    {
      "constant": true,
      "inputs": [],
      "name": "createCan",
      "outputs": [
        {
          "name": "",
          "type": "bool"
        }
      ],
      "payable": false,
      "stateMutability": "view",
      "type": "function"
    },
    {
      "constant": true,
      "inputs": [],
      "name": "getProposalsCounts",
      "outputs": [
        {
          "name": "",
          "type": "uint256"
        }
      ],
      "payable": false,
      "stateMutability": "view",
      "type": "function"
    },
    {
      "constant": true,
      "inputs": [],
      "name": "chairperson",
      "outputs": [
        {
          "name": "",
          "type": "address"
        }
      ],
      "payable": false,
      "stateMutability": "view",
      "type": "function"
    },
    {
      "constant": true,
      "inputs": [],
      "name": "timeToExpiry",
      "outputs": [
        {
          "name": "",
          "type": "uint256"
        }
      ],
      "payable": false,
      "stateMutability": "view",
      "type": "function"
    },
    {
      "constant": true,
      "inputs": [],
      "name": "getProposalsName",
      "outputs": [
        {
          "name": "nameCandi_",
          "type": "bytes32[]"
        }
      ],
      "payable": false,
      "stateMutability": "view",
      "type": "function"
    },
    {
      "constant": true,
      "inputs": [],
      "name": "winningProposal",
      "outputs": [
        {
          "name": "winningProposal_",
          "type": "uint256"
        }
      ],
      "payable": false,
      "stateMutability": "view",
      "type": "function"
    },
    {
      "constant": true,
      "inputs": [],
      "name": "startTime",
      "outputs": [
        {
          "name": "",
          "type": "uint256"
        }
      ],
      "payable": false,
      "stateMutability": "view",
      "type": "function"
    },
    {
      "constant": false,
      "inputs": [
        {
          "name": "title_",
          "type": "string"
        },
        {
          "name": "proposalNames",
          "type": "bytes32[]"
        },
        {
          "name": "_startTime",
          "type": "uint256"
        },
        {
          "name": "_timeToExpiry",
          "type": "uint256"
        }
      ],
      "name": "scoreProposal",
      "outputs": [
        {
          "name": "scoreProposal_",
          "type": "uint256[]"
        }
      ],
      "payable": true,
      "stateMutability": "payable",
      "type": "function"
    },
    {
      "constant": false,
      "inputs": [
        {
          "name": "title_",
          "type": "string"
        },
        {
          "name": "proposalNames",
          "type": "bytes32[]"
        },
        {
          "name": "_startTime",
          "type": "uint256"
        },
        {
          "name": "_timeToExpiry",
          "type": "uint256"
        }
      ],
      "name": "Ballot_box",
      "outputs": [
        {
          "name": "",
          "type": "uint256"
        }
      ],
      "payable": true,
      "stateMutability": "payable",
      "type": "function"
    },
    {
      "constant": true,
      "inputs": [
        {
          "name": "voter",
          "type": "address"
        }
      ],
      "name": "getVoteCountNow",
      "outputs": [
        {
          "name": "",
          "type": "uint256"
        }
      ],
      "payable": false,
      "stateMutability": "view",
      "type": "function"
    },
    {
      "constant": false,
      "inputs": [
        {
          "name": "voter",
          "type": "address"
        }
      ],
      "name": "giveRightToVote",
      "outputs": [
        {
          "name": "weight",
          "type": "uint256"
        },
        {
          "name": "voted",
          "type": "bool"
        },
        {
          "name": "delegate",
          "type": "address"
        },
        {
          "name": "vote",
          "type": "uint256"
        }
      ],
      "payable": true,
      "stateMutability": "payable",
      "type": "function"
    },
    {
      "constant": true,
      "inputs": [
        {
          "name": "",
          "type": "address"
        }
      ],
      "name": "voters",
      "outputs": [
        {
          "name": "weight",
          "type": "uint256"
        },
        {
          "name": "voted",
          "type": "bool"
        },
        {
          "name": "delegate",
          "type": "address"
        },
        {
          "name": "vote",
          "type": "uint256"
        }
      ],
      "payable": false,
      "stateMutability": "view",
      "type": "function"
    },
    {
      "constant": true,
      "inputs": [],
      "name": "voteCountNow",
      "outputs": [
        {
          "name": "",
          "type": "uint256"
        }
      ],
      "payable": false,
      "stateMutability": "view",
      "type": "function"
    },
    {
      "constant": false,
      "inputs": [],
      "name": "getNow",
      "outputs": [
        {
          "name": "",
          "type": "uint256"
        }
      ],
      "payable": true,
      "stateMutability": "payable",
      "type": "function"
    },
    {
      "constant": true,
      "inputs": [],
      "name": "titleVote",
      "outputs": [
        {
          "name": "",
          "type": "string"
        }
      ],
      "payable": false,
      "stateMutability": "view",
      "type": "function"
    },
    {
      "constant": false,
      "inputs": [],
      "name": "checkCreate",
      "outputs": [
        {
          "name": "already_",
          "type": "bool"
        }
      ],
      "payable": false,
      "stateMutability": "nonpayable",
      "type": "function"
    },
    {
      "constant": true,
      "inputs": [
        {
          "name": "",
          "type": "uint256"
        }
      ],
      "name": "timeNow",
      "outputs": [
        {
          "name": "",
          "type": "uint256"
        }
      ],
      "payable": false,
      "stateMutability": "view",
      "type": "function"
    },
    {
      "constant": true,
      "inputs": [],
      "name": "winnerName",
      "outputs": [
        {
          "name": "",
          "type": "string"
        }
      ],
      "payable": false,
      "stateMutability": "view",
      "type": "function"
    },
    {
      "constant": true,
      "inputs": [
        {
          "name": "",
          "type": "uint256"
        }
      ],
      "name": "scoreAll",
      "outputs": [
        {
          "name": "",
          "type": "uint256"
        }
      ],
      "payable": false,
      "stateMutability": "view",
      "type": "function"
    },
    {
      "constant": false,
      "inputs": [],
      "name": "getTitle",
      "outputs": [
        {
          "name": "nameTitle_",
          "type": "string"
        }
      ],
      "payable": false,
      "stateMutability": "nonpayable",
      "type": "function"
    }
  ],
  "bytecode": "0x60606040526000600760006101000a81548160ff021916908315150217905550341561002a57600080fd5b6112ba806100396000396000f300606060405260043610610128576000357c0100000000000000000000000000000000000000000000000000000000900463ffffffff1680630121b93f1461012d578063013cf08b14610145578063214e5c741461018b5780632352ee60146101b85780632e4176cf146101e15780633e84531c1461023657806350c90b0f1461025f578063609ff1bd146102c957806378e97925146102f257806388aa62d01461031b5780639a45fa6e1461037a5780639e4c68241461041e5780639e7b8d6114610447578063a3ec138d14610475578063af88b11414610507578063bbe4fd5014610530578063d3d73abd1461054e578063d8b34d78146105dc578063d95660be14610609578063e2ba53f014610632578063fc14a2d8146106c0578063ff3c1a8f146106f7575b600080fd5b6101436004808035906020019091905050610785565b005b341561015057600080fd5b61016660048080359060200190919050506107c8565b6040518083600019166000191681526020018281526020019250505060405180910390f35b341561019657600080fd5b61019e6107fb565b604051808215151515815260200191505060405180910390f35b34156101c357600080fd5b6101cb61080e565b6040518082815260200191505060405180910390f35b34156101ec57600080fd5b6101f461081b565b604051808273ffffffffffffffffffffffffffffffffffffffff1673ffffffffffffffffffffffffffffffffffffffff16815260200191505060405180910390f35b341561024157600080fd5b610249610840565b6040518082815260200191505060405180910390f35b341561026a57600080fd5b610272610846565b6040518080602001828103825283818151815260200191508051906020019060200280838360005b838110156102b557808201518184015260208101905061029a565b505050509050019250505060405180910390f35b34156102d457600080fd5b6102dc6108a8565b6040518082815260200191505060405180910390f35b34156102fd57600080fd5b610305610923565b6040518082815260200191505060405180910390f35b610323610929565b6040518080602001828103825283818151815260200191508051906020019060200280838360005b8381101561036657808201518184015260208101905061034b565b505050509050019250505060405180910390f35b61041c600480803590602001908201803590602001908080601f01602080910402602001604051908101604052809392919081815260200183838082843782019150505050505091908035906020019082018035906020019080806020026020016040519081016040528093929190818152602001838360200280828437820191505050505050919080359060200190919080359060200190919050506109bc565b005b341561042957600080fd5b610431610b57565b6040518082815260200191505060405180910390f35b610473600480803573ffffffffffffffffffffffffffffffffffffffff16906020019091905050610b61565b005b341561048057600080fd5b6104ac600480803573ffffffffffffffffffffffffffffffffffffffff16906020019091905050610cae565b60405180858152602001841515151581526020018373ffffffffffffffffffffffffffffffffffffffff1673ffffffffffffffffffffffffffffffffffffffff16815260200182815260200194505050505060405180910390f35b341561051257600080fd5b61051a610d0b565b6040518082815260200191505060405180910390f35b610538610d11565b6040518082815260200191505060405180910390f35b341561055957600080fd5b610561610d22565b6040518080602001828103825283818151815260200191508051906020019080838360005b838110156105a1578082015181840152602081019050610586565b50505050905090810190601f1680156105ce5780820380516001836020036101000a031916815260200191505b509250505060405180910390f35b34156105e757600080fd5b6105ef610dc0565b604051808215151515815260200191505060405180910390f35b341561061457600080fd5b61061c610dd7565b6040518082815260200191505060405180910390f35b341561063d57600080fd5b610645610ddd565b6040518080602001828103825283818151815260200191508051906020019080838360005b8381101561068557808201518184015260208101905061066a565b50505050905090810190601f1680156106b25780820380516001836020036101000a031916815260200191505b509250505060405180910390f35b34156106cb57600080fd5b6106e16004808035906020019091905050610ff4565b6040518082815260200191505060405180910390f35b341561070257600080fd5b61070a611018565b6040518080602001828103825283818151815260200191508051906020019080838360005b8381101561074a57808201518184015260208101905061072f565b50505050905090810190601f1680156107775780820380516001836020036101000a031916815260200191505b509250505060405180910390f35b600160046000828254019250508190555060016009828154811015156107a757fe5b90600052602060002090600202016001016000828254019250508190555050565b6009818154811015156107d757fe5b90600052602060002090600202016000915090508060000154908060010154905082565b600760009054906101000a900460ff1681565b6000600980549050905090565b6000809054906101000a900473ffffffffffffffffffffffffffffffffffffffff1681565b60015481565b61084e6110c0565b600a80548060200260200160405190810160405280929190818152602001828054801561089e57602002820191906000526020600020905b81546000191681526020019060010190808311610886575b5050505050905090565b6000806000809150600090505b60098054905081101561091e57816009828154811015156108d257fe5b9060005260206000209060020201600101541115610911576009818154811015156108f957fe5b90600052602060002090600202016001015491508092505b80806001019150506108b5565b505090565b60025481565b6109316110d4565b60006009805490506040518059106109465750595b90808252806020026020018201604052509150600090505b6009805490508110156109b55760098181548110151561097a57fe5b906000526020600020906002020160010154828281518110151561099a57fe5b9060200190602002018181525050808060010191505061095e565b8191505090565b6000336000806101000a81548173ffffffffffffffffffffffffffffffffffffffff021916908373ffffffffffffffffffffffffffffffffffffffff1602179055506001600860008060009054906101000a900473ffffffffffffffffffffffffffffffffffffffff1673ffffffffffffffffffffffffffffffffffffffff1673ffffffffffffffffffffffffffffffffffffffff1681526020019081526020016000206000018190555081600181905550826002819055508460059080519060200190610a8b9291906110e8565b5083600a9080519060200190610aa2929190611168565b506001600760006101000a81548160ff021916908315150217905550600090505b8351811015610b505760098054806001018281610ae091906111bb565b9160005260206000209060020201600060408051908101604052808886815181101515610b0957fe5b906020019060200201516000191681526020016000815250909190915060008201518160000190600019169055602082015181600101555050508080600101915050610ac3565b5050505050565b6000600454905090565b6000809054906101000a900473ffffffffffffffffffffffffffffffffffffffff1673ffffffffffffffffffffffffffffffffffffffff163373ffffffffffffffffffffffffffffffffffffffff16148015610c0a5750600860008273ffffffffffffffffffffffffffffffffffffffff1673ffffffffffffffffffffffffffffffffffffffff16815260200190815260200160002060010160009054906101000a900460ff16155b8015610c5857506000600860008373ffffffffffffffffffffffffffffffffffffffff1673ffffffffffffffffffffffffffffffffffffffff16815260200190815260200160002060000154145b1515610c6357600080fd5b6001600860008373ffffffffffffffffffffffffffffffffffffffff1673ffffffffffffffffffffffffffffffffffffffff1681526020019081526020016000206000018190555050565b60086020528060005260406000206000915090508060000154908060010160009054906101000a900460ff16908060010160019054906101000a900473ffffffffffffffffffffffffffffffffffffffff16908060020154905084565b60045481565b600042600381905550600354905090565b60058054600181600116156101000203166002900480601f016020809104026020016040519081016040528092919081815260200182805460018160011615610100020316600290048015610db85780601f10610d8d57610100808354040283529160200191610db8565b820191906000526020600020905b815481529060010190602001808311610d9b57829003601f168201915b505050505081565b6000600760009054906101000a900460ff16905090565b60035481565b610de56111ed565b610ded611201565b600080600080610dfb611201565b6020604051805910610e0a5750595b9080825280601f01601f191660200182016040525095506009610e2b6108a8565b815481101515610e3757fe5b906000526020600020906002020160000154945060009350600092505b6020831015610f12578260080260020a856001900402600102915060007f010000000000000000000000000000000000000000000000000000000000000002827effffffffffffffffffffffffffffffffffffffffffffffffffffffffffffff1916141515610f0557818685815181101515610ecc57fe5b9060200101907effffffffffffffffffffffffffffffffffffffffffffffffffffffffffffff1916908160001a90535083806001019450505b8280600101935050610e54565b83604051805910610f205750595b9080825280601f01601f19166020018201604052509050600092505b83831015610fe8578583815181101515610f5257fe5b9060200101517f010000000000000000000000000000000000000000000000000000000000000090047f0100000000000000000000000000000000000000000000000000000000000000028184815181101515610fab57fe5b9060200101907effffffffffffffffffffffffffffffffffffffffffffffffffffffffffffff1916908160001a9053508280600101935050610f3c565b80965050505050505090565b60068181548110151561100357fe5b90600052602060002090016000915090505481565b6110206111ed565b60058054600181600116156101000203166002900480601f0160208091040260200160405190810160405280929190818152602001828054600181600116156101000203166002900480156110b65780601f1061108b576101008083540402835291602001916110b6565b820191906000526020600020905b81548152906001019060200180831161109957829003601f168201915b5050505050905090565b602060405190810160405280600081525090565b602060405190810160405280600081525090565b828054600181600116156101000203166002900490600052602060002090601f016020900481019282601f1061112957805160ff1916838001178555611157565b82800160010185558215611157579182015b8281111561115657825182559160200191906001019061113b565b5b5090506111649190611215565b5090565b8280548282559060005260206000209081019282156111aa579160200282015b828111156111a9578251829060001916905591602001919060010190611188565b5b5090506111b7919061123a565b5090565b8154818355818115116111e8576002028160020283600052602060002091820191016111e7919061125f565b5b505050565b602060405190810160405280600081525090565b602060405190810160405280600081525090565b61123791905b8082111561123357600081600090555060010161121b565b5090565b90565b61125c91905b80821115611258576000816000905550600101611240565b5090565b90565b61128b91905b8082111561128757600080820160009055600182016000905550600201611265565b5090565b905600a165627a7a723058209f2b59594f581ed13953d3611367f1579e051332a4ec668b390dc04344db5c950029",
  "source": "pragma solidity ^0.4.16;\n\n/// @title Voting with delegation.\ncontract Ballot {\n    // This declares a new complex type which will\n    // be used for variables later.\n    // It will represent a single voter.\n    struct Voter {\n        uint weight; // weight is accumulated by delegation\n        bool voted;  // if true, that person already voted\n        address delegate; // person delegated to\n        uint vote;   // index of the voted proposal\n    }\n\n    // This is a type for a single proposal.\n    struct Proposal {\n        bytes32 name;   // short name (up to 32 bytes)\n        uint voteCount; // number of accumulated votes\n    }\n\n    address public chairperson;\n    uint public timeToExpiry;\n    uint public startTime;\n    uint public timeNow;\n    uint public voteCountNow;\n    string public titleVote;\n    uint[] public scoreAll;\n    bool public createCan = false;\n\n    // This declares a state variable that\n    // stores a `Voter` struct for each possible address.\n    mapping(address => Voter) public voters;\n\n    // A dynamically-sized array of `Proposal` structs.\n    Proposal[] public proposals;\n    bytes32[] Candidate;\n\n    /// Create a new ballot to choose one of `proposalNames`.\n    function Ballot_box(string title_, bytes32[] proposalNames ,uint _startTime ,uint _timeToExpiry) public payable{\n        chairperson = msg.sender;\n        voters[chairperson].weight = 1;\n        timeToExpiry = _timeToExpiry;\n        startTime = _startTime;\n        titleVote = title_;\n        Candidate = proposalNames;\n        createCan = true;\n\n        // For each of the provided proposal names,\n        // create a new proposal object and add it\n        // to the end of the array.\n        for (uint i = 0; i < proposalNames.length; i++) {\n            // `Proposal({...})` creates a temporary\n            // Proposal object and `proposals.push(...)`\n            // appends it to the end of `proposals`.\n            proposals.push(Proposal({\n                name: proposalNames[i],\n                voteCount: 0\n            }));\n        }\n    }\n\n    function checkCreate() public returns (bool already_){\n        already_ = createCan;\n    }\n\n    function getTitle() public returns (string nameTitle_) {\n        nameTitle_ = titleVote;\n    }\n    \n    function getProposalsName() public constant returns (bytes32[] nameCandi_) {\n        nameCandi_ = Candidate;\n    }\n\n    // function getProposalsName(bytes32[] Candidate) public returns (bytes32[]) {\n    //     bytes memory bytesString = new bytes(Candidate.length * 32);\n    //     uint urlLength;\n    //     for (uint i=0; i<Candidate.length; i++) {\n    //         for (uint j=0; j<32; j++) {\n    //             byte char = byte(bytes32(uint(Candidate[i]) * 2 ** (8 * j)));\n    //             if (char != 0) {\n    //                 bytesString[urlLength] = char;\n    //                 urlLength += 1;\n    //             }\n    //         }\n    //     }\n    //     bytes32[] bytesStringTrimmed;\n    //     for (i=0; i<urlLength; i++) {\n    //         bytesStringTrimmed[i] = bytesString[i];\n    //     }\n    //     return bytesStringTrimmed;\n    // }   \n\n    function getProposalsCounts() public constant returns (uint) {\n        return (proposals.length);\n    }   \n\n\n    // Give `voter` the right to vote on this ballot.\n    // May only be called by `chairperson`.\n    function giveRightToVote(address voter) public payable{\n        // If the argument of `require` evaluates to `false`,\n        // it terminates and reverts all changes to\n        // the state and to Ether balances. It is often\n        // a good idea to use this if functions are\n        // called incorrectly. But watch out, this\n        // will currently also consume all provided gas\n        // (this is planned to change in the future).\n        require(\n            (msg.sender == chairperson) &&\n            !voters[voter].voted &&\n            (voters[voter].weight == 0)\n        );\n        voters[voter].weight = 1;\n    }\n\n    /// Give your vote (including votes delegated to you)\n    /// to proposal `proposals[proposal].name`.\n    function vote(uint proposal) public payable{\n        // Voter storage sender = voters[msg.sender];\n        // require((!sender.voted) &&\n        //     (voters[msg.sender].weight == 1) &&\n        //     (now < timeToExpiry) &&\n        //     (now > startTime));\n        // sender.voted = true;\n        // sender.vote = proposal;\n\n        // If `proposal` is out of the range of the array,\n        // this will throw automatically and revert all\n        // changes.\n        voteCountNow += 1;\n        proposals[proposal].voteCount += 1;\n    }\n\n    function getVoteCountNow() public constant returns (uint) {\n        return voteCountNow;\n    }\n\n    /// @dev Computes the winning proposal taking all\n    /// previous votes into account.\n    function winningProposal() public view\n            returns (uint winningProposal_)\n    {\n        uint winningVoteCount = 0;\n        for (uint p = 0; p < proposals.length; p++) {\n            if (proposals[p].voteCount > winningVoteCount) {\n                winningVoteCount = proposals[p].voteCount;\n                winningProposal_ = p;\n            }\n        }\n    }\n\n    function scoreProposal() public payable returns(uint[] scoreProposal_) {\n        scoreProposal_ = new uint[](proposals.length);\n        for (uint i = 0; i < proposals.length; i++) {\n            scoreProposal_[i] = proposals[i].voteCount;\n        }\n        return scoreProposal_;\n    }\n    \n    function winnerName() public view  returns (string) {\n            bytes memory bytesString = new bytes(32);\n            bytes32 x = proposals[winningProposal()].name;\n            uint charCount = 0;\n        for (uint j = 0; j < 32; j++) {\n            byte char = byte(bytes32(uint(x) * 2 ** (8 * j)));\n                if (char != 0) {\n                    bytesString[charCount] = char;\n                    charCount++;\n                }\n            }\n        bytes memory winnerName_ = new bytes(charCount);\n        for (j = 0; j < charCount; j++) {\n            winnerName_[j] = bytesString[j];\n        }\n    return string(winnerName_);\n\n}\n    function getNow() public payable returns (uint){\n        timeNow = now;\n        return timeNow;\n    }\n    \n    \n\n    // Calls winningProposal() function to get the index\n    // of the winner contained in the proposals array and then\n    // returns the name of the winner\n    // function winnerName() public view \n    //        returns (bytes32 winnerName_)\n    //{\n    //    winnerName_ = proposals[winningProposal()].name;\n    //}\n\n}",
  "sourcePath": "/Users/lab508/Desktop/web5.0/contracts/ballot.sol",
  "compiler": {
    "name": "solc",
    "version": "0.4.18+commit.9cf6e910.Emscripten.clang"
  },
  "schemaVersion": "1.0.1",
  "updatedAt": "2018-05-20T10:07:54.580Z"
}